{
  "contractName": "Customer",
  "abi": [
    {
      "inputs": [],
      "payable": false,
      "stateMutability": "nonpayable",
      "type": "constructor"
    },
    {
      "anonymous": false,
      "inputs": [
        {
          "indexed": true,
          "internalType": "address",
          "name": "_account",
          "type": "address"
        }
      ],
      "name": "CustomerAdded",
      "type": "event"
    },
    {
      "anonymous": false,
      "inputs": [
        {
          "indexed": true,
          "internalType": "address",
          "name": "_account",
          "type": "address"
        }
      ],
      "name": "CustomerRemoved",
      "type": "event"
    },
    {
      "constant": true,
      "inputs": [
        {
          "internalType": "address",
          "name": "_account",
          "type": "address"
        }
      ],
      "name": "isCustomer",
      "outputs": [
        {
          "internalType": "bool",
          "name": "",
          "type": "bool"
        }
      ],
      "payable": false,
      "stateMutability": "view",
      "type": "function"
    },
    {
      "constant": false,
      "inputs": [
        {
          "internalType": "address",
          "name": "_account",
          "type": "address"
        }
      ],
      "name": "addCustomer",
      "outputs": [],
      "payable": false,
      "stateMutability": "nonpayable",
      "type": "function"
    },
    {
      "constant": false,
      "inputs": [],
      "name": "removeCustomer",
      "outputs": [],
      "payable": false,
      "stateMutability": "nonpayable",
      "type": "function"
    }
  ],
  "bytecode": "0x608060405234801561001057600080fd5b5061002933600061005960201b6101d91790919060201c565b60405133907fcd118a02bd36f224f6f1b93812f78d2bbc2c2dc1bc0f60c176e3b4fe09f1483f90600090a261016f565b6001600160a01b03811661008e576040805162461bcd60e51b8152602060048201526000602482015290519081900360640190fd5b6100a182826001600160e01b0361011816565b156100f3576040805162461bcd60e51b815260206004820152601f60248201527f526f6c65733a206163636f756e7420616c72656164792068617320726f6c6500604482015290519081900360640190fd5b6001600160a01b0316600090815260209190915260409020805460ff19166001179055565b60006001600160a01b03821661014f576040805162461bcd60e51b8152602060048201526000602482015290519081900360640190fd5b506001600160a01b03166000908152602091909152604090205460ff1690565b6103508061017e6000396000f3fe608060405234801561001057600080fd5b50600436106100415760003560e01c806328fd5e8314610046578063ad973d7414610080578063ceecd596146100a8575b600080fd5b61006c6004803603602081101561005c57600080fd5b50356001600160a01b03166100b0565b604080519115158252519081900360200190f35b6100a66004803603602081101561009657600080fd5b50356001600160a01b03166100c8565b005b6100a6610144565b60006100c2818363ffffffff61018216565b92915050565b6100d1336100b0565b6100fc576040805162461bcd60e51b8152602060048201526000602482015290519081900360640190fd5b61010d60008263ffffffff6101d916565b6040516001600160a01b038216907fcd118a02bd36f224f6f1b93812f78d2bbc2c2dc1bc0f60c176e3b4fe09f1483f90600090a250565b61015560003363ffffffff61028f16565b60405133907fb4c88a9c5cd906354abdd1cc29e4f94c6c4de90754fb80ce51e6a33417bc81b690600090a2565b60006001600160a01b0382166101b9576040805162461bcd60e51b8152602060048201526000602482015290519081900360640190fd5b506001600160a01b03166000908152602091909152604090205460ff1690565b6001600160a01b03811661020e576040805162461bcd60e51b8152602060048201526000602482015290519081900360640190fd5b6102188282610182565b1561026a576040805162461bcd60e51b815260206004820152601f60248201527f526f6c65733a206163636f756e7420616c72656164792068617320726f6c6500604482015290519081900360640190fd5b6001600160a01b0316600090815260209190915260409020805460ff19166001179055565b6001600160a01b0381166102c4576040805162461bcd60e51b8152602060048201526000602482015290519081900360640190fd5b6102ce8282610182565b6102f9576040805162461bcd60e51b8152602060048201526000602482015290519081900360640190fd5b6001600160a01b0316600090815260209190915260409020805460ff1916905556fea265627a7a723158208bb0fd53e85aabaececc2777f92715f8e79a55694ff464327003e782fd9c535464736f6c63430005100032",
  "source": "// SPDX-License-Identifier: MIT\npragma solidity >=0.4.22 <0.9.0;\n\nimport \"./Roles.sol\";\n\ncontract Customer {\n  using Roles for Roles.Role;\n\n  event CustomerAdded(address indexed _account);\n  event CustomerRemoved(address indexed _account);\n\n  Roles.Role private customersList;\n\n  constructor() public {\n    customersList.addRole(msg.sender);\n    emit CustomerAdded(msg.sender);\n  }\n\n  ///@dev Modifiers for Customer.\n  modifier onlyCustomer() {\n    require(isCustomer(msg.sender), \"\");\n    _;\n  }\n  /*-----------------------------*/\n\n  ///@dev Customer Utility functions.\n  function isCustomer(address _account) public view returns (bool) {\n    return customersList.hasRole(_account);\n  }\n\n  function addCustomer(address _account) public onlyCustomer {\n    customersList.addRole(_account);\n    emit CustomerAdded(_account);\n  }\n\n  function removeCustomer() public {\n    customersList.removeRole(msg.sender);\n    emit CustomerRemoved(msg.sender);\n  }\n  /*-----------------------------*/\n\n}\n",
  "sourcePath": "/Users/sumyat/Documents/GitHub/SupplyChain/contracts/adminRoles/Customer.sol",
  "compiler": {
    "name": "solc",
    "version": "0.5.16+commit.9c3226ce.Emscripten.clang"
  },
  "schemaVersion": "3.4.9",
  "updatedAt": "2022-09-15T11:39:37.988Z",
  "devdoc": {
    "methods": {
      "isCustomer(address)": {
        "details": "Customer Utility functions."
      }
    }
  },
  "userdoc": {
    "methods": {}
  }
}