{
  "contractName": "Delivery",
  "abi": [
    {
      "inputs": [],
      "payable": false,
      "stateMutability": "nonpayable",
      "type": "constructor"
    },
    {
      "anonymous": false,
      "inputs": [
        {
          "indexed": true,
          "internalType": "address",
          "name": "_account",
          "type": "address"
        }
      ],
      "name": "DeliveryAdded",
      "type": "event"
    },
    {
      "anonymous": false,
      "inputs": [
        {
          "indexed": true,
          "internalType": "address",
          "name": "_account",
          "type": "address"
        }
      ],
      "name": "DeliveryRemoved",
      "type": "event"
    },
    {
      "constant": true,
      "inputs": [
        {
          "internalType": "address",
          "name": "_account",
          "type": "address"
        }
      ],
      "name": "isDelivery",
      "outputs": [
        {
          "internalType": "bool",
          "name": "",
          "type": "bool"
        }
      ],
      "payable": false,
      "stateMutability": "view",
      "type": "function"
    },
    {
      "constant": false,
      "inputs": [
        {
          "internalType": "address",
          "name": "_account",
          "type": "address"
        }
      ],
      "name": "addDelivery",
      "outputs": [],
      "payable": false,
      "stateMutability": "nonpayable",
      "type": "function"
    },
    {
      "constant": false,
      "inputs": [],
      "name": "removeDelivery",
      "outputs": [],
      "payable": false,
      "stateMutability": "nonpayable",
      "type": "function"
    }
  ],
  "bytecode": "0x608060405234801561001057600080fd5b5061002933600061005960201b6102651790919060201c565b60405133907fc46c392c15a2af92ff02ca27477e750573141241b368d7c7680672033743938190600090a261016f565b6001600160a01b03811661008e576040805162461bcd60e51b8152602060048201526000602482015290519081900360640190fd5b6100a182826001600160e01b0361011816565b156100f3576040805162461bcd60e51b815260206004820152601f60248201527f526f6c65733a206163636f756e7420616c72656164792068617320726f6c6500604482015290519081900360640190fd5b6001600160a01b0316600090815260209190915260409020805460ff19166001179055565b60006001600160a01b03821661014f576040805162461bcd60e51b8152602060048201526000602482015290519081900360640190fd5b506001600160a01b03166000908152602091909152604090205460ff1690565b6103508061017e6000396000f3fe608060405234801561001057600080fd5b50600436106100415760003560e01c80632ee092c11461004657806349129cfd146100805780638cf04e991461008a575b600080fd5b61006c6004803603602081101561005c57600080fd5b50356001600160a01b03166100b0565b604080519115158252519081900360200190f35b6100886100c8565b005b610088600480360360208110156100a057600080fd5b50356001600160a01b0316610106565b60006100c2818363ffffffff61018216565b92915050565b6100d960003363ffffffff6101d916565b60405133907fb84bfcd7d7aaf9c8ba784beebad446d62fcb79e7370a290a02c129efd35a190190600090a2565b61010f336100b0565b61013a576040805162461bcd60e51b8152602060048201526000602482015290519081900360640190fd5b61014b60008263ffffffff61026516565b6040516001600160a01b038216907fc46c392c15a2af92ff02ca27477e750573141241b368d7c7680672033743938190600090a250565b60006001600160a01b0382166101b9576040805162461bcd60e51b8152602060048201526000602482015290519081900360640190fd5b506001600160a01b03166000908152602091909152604090205460ff1690565b6001600160a01b03811661020e576040805162461bcd60e51b8152602060048201526000602482015290519081900360640190fd5b6102188282610182565b610243576040805162461bcd60e51b8152602060048201526000602482015290519081900360640190fd5b6001600160a01b0316600090815260209190915260409020805460ff19169055565b6001600160a01b03811661029a576040805162461bcd60e51b8152602060048201526000602482015290519081900360640190fd5b6102a48282610182565b156102f6576040805162461bcd60e51b815260206004820152601f60248201527f526f6c65733a206163636f756e7420616c72656164792068617320726f6c6500604482015290519081900360640190fd5b6001600160a01b0316600090815260209190915260409020805460ff1916600117905556fea265627a7a723158207b93625e6fc29e6aeef96bb7728a9e959cd39914c2faa7f7ba009ae29f7e795564736f6c63430005100032",
  "source": "// SPDX-License-Identifier: MIT\npragma solidity >=0.4.22 <0.9.0;\n\nimport \"./Roles.sol\";\n\ncontract Delivery {\n  using Roles for Roles.Role;\n\n  event DeliveryAdded(address indexed _account);\n  event DeliveryRemoved(address indexed _account);\n\n  Roles.Role private deliveryList;\n\n  constructor() public {\n    deliveryList.addRole(msg.sender);\n    emit DeliveryAdded(msg.sender);\n  }\n\n  ///@dev Modifiers for Delivery.\n  modifier onlyDelivery() {\n    require(isDelivery(msg.sender), \"\");\n    _;\n  }\n  /*-----------------------------*/\n\n  ///@dev Delivery Utility functions.\n  function isDelivery(address _account) public view returns (bool) {\n    return deliveryList.hasRole(_account);\n  }\n\n  function addDelivery(address _account) public onlyDelivery {\n    deliveryList.addRole(_account);\n    emit DeliveryAdded(_account);\n  }\n\n  function removeDelivery() public {\n    deliveryList.removeRole(msg.sender);\n    emit DeliveryRemoved(msg.sender);\n  }\n  /*-----------------------------*/\n\n}\n",
  "sourcePath": "/Users/sumyat/Documents/GitHub/SupplyChain/contracts/adminRoles/Delivery.sol",
  "compiler": {
    "name": "solc",
    "version": "0.5.16+commit.9c3226ce.Emscripten.clang"
  },
  "schemaVersion": "3.4.9",
  "updatedAt": "2022-09-15T11:39:37.989Z",
  "devdoc": {
    "methods": {
      "isDelivery(address)": {
        "details": "Delivery Utility functions."
      }
    }
  },
  "userdoc": {
    "methods": {}
  }
}