{
  "contractName": "Manufacturer",
  "abi": [
    {
      "inputs": [],
      "payable": false,
      "stateMutability": "nonpayable",
      "type": "constructor"
    },
    {
      "anonymous": false,
      "inputs": [
        {
          "indexed": true,
          "internalType": "address",
          "name": "_account",
          "type": "address"
        }
      ],
      "name": "ManufacturerAdded",
      "type": "event"
    },
    {
      "anonymous": false,
      "inputs": [
        {
          "indexed": true,
          "internalType": "address",
          "name": "_account",
          "type": "address"
        }
      ],
      "name": "ManufacturerRemoved",
      "type": "event"
    },
    {
      "constant": true,
      "inputs": [
        {
          "internalType": "address",
          "name": "_account",
          "type": "address"
        }
      ],
      "name": "isManufacturer",
      "outputs": [
        {
          "internalType": "bool",
          "name": "",
          "type": "bool"
        }
      ],
      "payable": false,
      "stateMutability": "view",
      "type": "function"
    },
    {
      "constant": false,
      "inputs": [
        {
          "internalType": "address",
          "name": "_account",
          "type": "address"
        }
      ],
      "name": "addManufacturer",
      "outputs": [],
      "payable": false,
      "stateMutability": "nonpayable",
      "type": "function"
    },
    {
      "constant": false,
      "inputs": [],
      "name": "removeManufacturer",
      "outputs": [],
      "payable": false,
      "stateMutability": "nonpayable",
      "type": "function"
    }
  ],
  "bytecode": "0x608060405234801561001057600080fd5b5061002933600061005960201b6101a51790919060201c565b60405133907f561138658ca49a8540dc70dcfe64c9026c1c5b9344642242dd6562970f9c127890600090a261016f565b6001600160a01b03811661008e576040805162461bcd60e51b8152602060048201526000602482015290519081900360640190fd5b6100a182826001600160e01b0361011816565b156100f3576040805162461bcd60e51b815260206004820152601f60248201527f526f6c65733a206163636f756e7420616c72656164792068617320726f6c6500604482015290519081900360640190fd5b6001600160a01b0316600090815260209190915260409020805460ff19166001179055565b60006001600160a01b03821661014f576040805162461bcd60e51b8152602060048201526000602482015290519081900360640190fd5b506001600160a01b03166000908152602091909152604090205460ff1690565b61031c8061017e6000396000f3fe608060405234801561001057600080fd5b50600436106100415760003560e01c806317d4a491146100465780635f8a5afa14610080578063f89620e1146100a8575b600080fd5b61006c6004803603602081101561005c57600080fd5b50356001600160a01b03166100b0565b604080519115158252519081900360200190f35b6100a66004803603602081101561009657600080fd5b50356001600160a01b03166100c8565b005b6100a6610110565b60006100c2818363ffffffff61014e16565b92915050565b6100d960008263ffffffff6101a516565b6040516001600160a01b038216907f561138658ca49a8540dc70dcfe64c9026c1c5b9344642242dd6562970f9c127890600090a250565b61012160003363ffffffff61025b16565b60405133907f2fed5abf6a80d6dfe30b4895481b2fc5d7dce5f8f7b931832f4a2947d5040c7f90600090a2565b60006001600160a01b038216610185576040805162461bcd60e51b8152602060048201526000602482015290519081900360640190fd5b506001600160a01b03166000908152602091909152604090205460ff1690565b6001600160a01b0381166101da576040805162461bcd60e51b8152602060048201526000602482015290519081900360640190fd5b6101e4828261014e565b15610236576040805162461bcd60e51b815260206004820152601f60248201527f526f6c65733a206163636f756e7420616c72656164792068617320726f6c6500604482015290519081900360640190fd5b6001600160a01b0316600090815260209190915260409020805460ff19166001179055565b6001600160a01b038116610290576040805162461bcd60e51b8152602060048201526000602482015290519081900360640190fd5b61029a828261014e565b6102c5576040805162461bcd60e51b8152602060048201526000602482015290519081900360640190fd5b6001600160a01b0316600090815260209190915260409020805460ff1916905556fea265627a7a7231582000c491caa5e511930c78a2eec76446859f6452bba21904c4add3ba57b0b7513d64736f6c63430005100032",
  "source": "// SPDX-License-Identifier: MIT\npragma solidity >=0.4.22 <0.9.0;\n\nimport \"./Roles.sol\";\n\ncontract Manufacturer {\n  using Roles for Roles.Role;\n\n  event ManufacturerAdded(address indexed _account);\n  event ManufacturerRemoved(address indexed _account);\n\n  Roles.Role  manufacturersList;\n\n  constructor() public {\n    manufacturersList.addRole(msg.sender);\n    emit ManufacturerAdded(msg.sender);\n  }\n\n  ///@dev Modifiers for Manufacturer.\n  modifier onlyManufacturer() {\n    require(isManufacturer(msg.sender), \"\");\n    _;\n  }\n  /*-----------------------------*/\n\n  ///@dev Manufacturer Utility functions.\n  function isManufacturer(address _account) public view returns (bool) {\n    return manufacturersList.hasRole(_account);\n  }\n\n  function addManufacturer(address _account ) public {\n    manufacturersList.addRole(_account);\n    emit ManufacturerAdded(_account);\n  }\n\n  function removeManufacturer() public {\n    manufacturersList.removeRole(msg.sender);\n    emit ManufacturerRemoved(msg.sender);\n  }\n  /*-----------------------------*/\n\n}\n",
  "sourcePath": "/Users/sumyat/Documents/GitHub/SupplyChain/contracts/adminRoles/Manufacturer.sol",
  "compiler": {
    "name": "solc",
    "version": "0.5.16+commit.9c3226ce.Emscripten.clang"
  },
  "schemaVersion": "3.4.9",
  "updatedAt": "2022-09-15T13:53:18.255Z",
  "networkType": "ethereum",
  "devdoc": {
    "methods": {
      "isManufacturer(address)": {
        "details": "Manufacturer Utility functions."
      }
    }
  },
  "userdoc": {
    "methods": {}
  }
}