{
  "contractName": "SupplyChain",
  "abi": [
    {
      "inputs": [],
      "payable": true,
      "stateMutability": "payable",
      "type": "constructor"
    },
    {
      "anonymous": false,
      "inputs": [
        {
          "indexed": true,
          "internalType": "address",
          "name": "_account",
          "type": "address"
        }
      ],
      "name": "ManufacturerAdded",
      "type": "event"
    },
    {
      "anonymous": false,
      "inputs": [
        {
          "indexed": false,
          "internalType": "uint256",
          "name": "uid",
          "type": "uint256"
        }
      ],
      "name": "ProductManufacture",
      "type": "event"
    },
    {
      "anonymous": false,
      "inputs": [
        {
          "indexed": false,
          "internalType": "uint256",
          "name": "uid",
          "type": "uint256"
        }
      ],
      "name": "PurchasedByCustomer",
      "type": "event"
    },
    {
      "anonymous": false,
      "inputs": [
        {
          "indexed": false,
          "internalType": "uint256",
          "name": "uid",
          "type": "uint256"
        }
      ],
      "name": "PurchasedByThirdParty",
      "type": "event"
    },
    {
      "anonymous": false,
      "inputs": [
        {
          "indexed": false,
          "internalType": "uint256",
          "name": "uid",
          "type": "uint256"
        }
      ],
      "name": "ReceivedByCustomer",
      "type": "event"
    },
    {
      "anonymous": false,
      "inputs": [
        {
          "indexed": false,
          "internalType": "uint256",
          "name": "uid",
          "type": "uint256"
        }
      ],
      "name": "ReceivedByDelivery",
      "type": "event"
    },
    {
      "anonymous": false,
      "inputs": [
        {
          "indexed": false,
          "internalType": "uint256",
          "name": "uid",
          "type": "uint256"
        }
      ],
      "name": "ReceivedByThirdParty",
      "type": "event"
    },
    {
      "anonymous": false,
      "inputs": [
        {
          "indexed": false,
          "internalType": "uint256",
          "name": "uid",
          "type": "uint256"
        }
      ],
      "name": "ShippedByDelivery",
      "type": "event"
    },
    {
      "anonymous": false,
      "inputs": [
        {
          "indexed": false,
          "internalType": "uint256",
          "name": "uid",
          "type": "uint256"
        }
      ],
      "name": "ShippedByManufacturer",
      "type": "event"
    },
    {
      "anonymous": false,
      "inputs": [
        {
          "indexed": false,
          "internalType": "uint256",
          "name": "uid",
          "type": "uint256"
        }
      ],
      "name": "ShippedByThirdParty",
      "type": "event"
    },
    {
      "constant": true,
      "inputs": [],
      "name": "uid",
      "outputs": [
        {
          "internalType": "uint256",
          "name": "",
          "type": "uint256"
        }
      ],
      "payable": false,
      "stateMutability": "view",
      "type": "function"
    },
    {
      "constant": true,
      "inputs": [
        {
          "internalType": "address",
          "name": "_account",
          "type": "address"
        }
      ],
      "name": "hasManufacturerAdmin",
      "outputs": [
        {
          "internalType": "bool",
          "name": "",
          "type": "bool"
        }
      ],
      "payable": false,
      "stateMutability": "view",
      "type": "function"
    },
    {
      "constant": false,
      "inputs": [
        {
          "internalType": "address",
          "name": "_account",
          "type": "address"
        }
      ],
      "name": "addManufacturerAdmin",
      "outputs": [],
      "payable": false,
      "stateMutability": "nonpayable",
      "type": "function"
    },
    {
      "constant": true,
      "inputs": [
        {
          "internalType": "address",
          "name": "_account",
          "type": "address"
        }
      ],
      "name": "hasThirdPartyAdmin",
      "outputs": [
        {
          "internalType": "bool",
          "name": "",
          "type": "bool"
        }
      ],
      "payable": false,
      "stateMutability": "view",
      "type": "function"
    },
    {
      "constant": false,
      "inputs": [
        {
          "internalType": "address",
          "name": "_account",
          "type": "address"
        }
      ],
      "name": "addThirdPartyAdmin",
      "outputs": [],
      "payable": false,
      "stateMutability": "nonpayable",
      "type": "function"
    },
    {
      "constant": true,
      "inputs": [
        {
          "internalType": "address",
          "name": "_account",
          "type": "address"
        }
      ],
      "name": "hasDeliveryAdmin",
      "outputs": [
        {
          "internalType": "bool",
          "name": "",
          "type": "bool"
        }
      ],
      "payable": false,
      "stateMutability": "view",
      "type": "function"
    },
    {
      "constant": false,
      "inputs": [
        {
          "internalType": "address",
          "name": "_account",
          "type": "address"
        }
      ],
      "name": "addDeliveryAdmin",
      "outputs": [],
      "payable": false,
      "stateMutability": "nonpayable",
      "type": "function"
    },
    {
      "constant": true,
      "inputs": [
        {
          "internalType": "address",
          "name": "_account",
          "type": "address"
        }
      ],
      "name": "hasCustomerAdmin",
      "outputs": [
        {
          "internalType": "bool",
          "name": "",
          "type": "bool"
        }
      ],
      "payable": false,
      "stateMutability": "view",
      "type": "function"
    },
    {
      "constant": false,
      "inputs": [
        {
          "internalType": "address",
          "name": "_account",
          "type": "address"
        }
      ],
      "name": "addCustomerAdmin",
      "outputs": [],
      "payable": false,
      "stateMutability": "nonpayable",
      "type": "function"
    },
    {
      "constant": false,
      "inputs": [
        {
          "internalType": "string",
          "name": "manufacturerName",
          "type": "string"
        },
        {
          "internalType": "string",
          "name": "manufacturerDetails",
          "type": "string"
        },
        {
          "internalType": "string",
          "name": "manufacturerLongitude",
          "type": "string"
        },
        {
          "internalType": "string",
          "name": "manufacturerLatitude",
          "type": "string"
        },
        {
          "internalType": "string",
          "name": "productName",
          "type": "string"
        },
        {
          "internalType": "uint256",
          "name": "productCode",
          "type": "uint256"
        },
        {
          "internalType": "uint256",
          "name": "productPrice",
          "type": "uint256"
        },
        {
          "internalType": "string",
          "name": "productCategory",
          "type": "string"
        }
      ],
      "name": "manufactureProduct",
      "outputs": [],
      "payable": false,
      "stateMutability": "nonpayable",
      "type": "function"
    },
    {
      "constant": false,
      "inputs": [
        {
          "internalType": "uint256",
          "name": "_uid",
          "type": "uint256"
        }
      ],
      "name": "purchaseByThirdParty",
      "outputs": [],
      "payable": false,
      "stateMutability": "nonpayable",
      "type": "function"
    },
    {
      "constant": false,
      "inputs": [
        {
          "internalType": "uint256",
          "name": "_uid",
          "type": "uint256"
        }
      ],
      "name": "shipToThirdParty",
      "outputs": [],
      "payable": false,
      "stateMutability": "nonpayable",
      "type": "function"
    },
    {
      "constant": false,
      "inputs": [
        {
          "internalType": "uint256",
          "name": "_uid",
          "type": "uint256"
        },
        {
          "internalType": "string",
          "name": "thirdPartyLongitude",
          "type": "string"
        },
        {
          "internalType": "string",
          "name": "thirdPartyLatitude",
          "type": "string"
        }
      ],
      "name": "receiveByThirdParty",
      "outputs": [],
      "payable": false,
      "stateMutability": "nonpayable",
      "type": "function"
    },
    {
      "constant": false,
      "inputs": [
        {
          "internalType": "uint256",
          "name": "_uid",
          "type": "uint256"
        }
      ],
      "name": "purchaseByCustomer",
      "outputs": [],
      "payable": false,
      "stateMutability": "nonpayable",
      "type": "function"
    },
    {
      "constant": false,
      "inputs": [
        {
          "internalType": "uint256",
          "name": "_uid",
          "type": "uint256"
        }
      ],
      "name": "shipByThirdParty",
      "outputs": [],
      "payable": false,
      "stateMutability": "nonpayable",
      "type": "function"
    },
    {
      "constant": false,
      "inputs": [
        {
          "internalType": "uint256",
          "name": "_uid",
          "type": "uint256"
        },
        {
          "internalType": "string",
          "name": "deliveryLongitude",
          "type": "string"
        },
        {
          "internalType": "string",
          "name": "deliveryLatitude",
          "type": "string"
        }
      ],
      "name": "receiveByDelivery",
      "outputs": [],
      "payable": false,
      "stateMutability": "nonpayable",
      "type": "function"
    },
    {
      "constant": false,
      "inputs": [
        {
          "internalType": "uint256",
          "name": "_uid",
          "type": "uint256"
        }
      ],
      "name": "shipByDelivery",
      "outputs": [],
      "payable": false,
      "stateMutability": "nonpayable",
      "type": "function"
    },
    {
      "constant": false,
      "inputs": [
        {
          "internalType": "uint256",
          "name": "_uid",
          "type": "uint256"
        }
      ],
      "name": "receiveByCustomer",
      "outputs": [],
      "payable": false,
      "stateMutability": "nonpayable",
      "type": "function"
    },
    {
      "constant": true,
      "inputs": [
        {
          "internalType": "uint256",
          "name": "_uid",
          "type": "uint256"
        },
        {
          "internalType": "string",
          "name": "_type",
          "type": "string"
        },
        {
          "internalType": "uint256",
          "name": "i",
          "type": "uint256"
        }
      ],
      "name": "fetchItemPart1",
      "outputs": [
        {
          "internalType": "uint256",
          "name": "",
          "type": "uint256"
        },
        {
          "internalType": "uint256",
          "name": "",
          "type": "uint256"
        },
        {
          "internalType": "address",
          "name": "",
          "type": "address"
        },
        {
          "internalType": "address",
          "name": "",
          "type": "address"
        },
        {
          "internalType": "string",
          "name": "",
          "type": "string"
        },
        {
          "internalType": "string",
          "name": "",
          "type": "string"
        },
        {
          "internalType": "string",
          "name": "",
          "type": "string"
        },
        {
          "internalType": "string",
          "name": "",
          "type": "string"
        }
      ],
      "payable": false,
      "stateMutability": "view",
      "type": "function"
    },
    {
      "constant": true,
      "inputs": [
        {
          "internalType": "uint256",
          "name": "_uid",
          "type": "uint256"
        },
        {
          "internalType": "string",
          "name": "_type",
          "type": "string"
        },
        {
          "internalType": "uint256",
          "name": "i",
          "type": "uint256"
        }
      ],
      "name": "fetchItemPart2",
      "outputs": [
        {
          "internalType": "uint256",
          "name": "",
          "type": "uint256"
        },
        {
          "internalType": "string",
          "name": "",
          "type": "string"
        },
        {
          "internalType": "uint256",
          "name": "",
          "type": "uint256"
        },
        {
          "internalType": "uint256",
          "name": "",
          "type": "uint256"
        },
        {
          "internalType": "string",
          "name": "",
          "type": "string"
        },
        {
          "internalType": "enum Structure.State",
          "name": "",
          "type": "uint8"
        },
        {
          "internalType": "address",
          "name": "",
          "type": "address"
        },
        {
          "internalType": "string",
          "name": "",
          "type": "string"
        }
      ],
      "payable": false,
      "stateMutability": "view",
      "type": "function"
    },
    {
      "constant": true,
      "inputs": [
        {
          "internalType": "uint256",
          "name": "_uid",
          "type": "uint256"
        },
        {
          "internalType": "string",
          "name": "_type",
          "type": "string"
        },
        {
          "internalType": "uint256",
          "name": "i",
          "type": "uint256"
        }
      ],
      "name": "fetchItemPart3",
      "outputs": [
        {
          "internalType": "string",
          "name": "",
          "type": "string"
        },
        {
          "internalType": "address",
          "name": "",
          "type": "address"
        },
        {
          "internalType": "string",
          "name": "",
          "type": "string"
        },
        {
          "internalType": "string",
          "name": "",
          "type": "string"
        },
        {
          "internalType": "address",
          "name": "",
          "type": "address"
        },
        {
          "internalType": "string",
          "name": "",
          "type": "string"
        }
      ],
      "payable": false,
      "stateMutability": "view",
      "type": "function"
    },
    {
      "constant": true,
      "inputs": [],
      "name": "fetchItemCount",
      "outputs": [
        {
          "internalType": "uint256",
          "name": "",
          "type": "uint256"
        }
      ],
      "payable": false,
      "stateMutability": "view",
      "type": "function"
    },
    {
      "constant": true,
      "inputs": [
        {
          "internalType": "uint256",
          "name": "_uid",
          "type": "uint256"
        }
      ],
      "name": "fetchItemHistoryLength",
      "outputs": [
        {
          "internalType": "uint256",
          "name": "",
          "type": "uint256"
        }
      ],
      "payable": false,
      "stateMutability": "view",
      "type": "function"
    },
    {
      "constant": true,
      "inputs": [
        {
          "internalType": "uint256",
          "name": "_uid",
          "type": "uint256"
        }
      ],
      "name": "fetchItemState",
      "outputs": [
        {
          "internalType": "enum Structure.State",
          "name": "",
          "type": "uint8"
        }
      ],
      "payable": false,
      "stateMutability": "view",
      "type": "function"
    },
    {
      "constant": false,
      "inputs": [
        {
          "internalType": "string",
          "name": "tran",
          "type": "string"
        }
      ],
      "name": "setTransactionHashOnManufacture",
      "outputs": [],
      "payable": false,
      "stateMutability": "nonpayable",
      "type": "function"
    },
    {
      "constant": false,
      "inputs": [
        {
          "internalType": "uint256",
          "name": "_uid",
          "type": "uint256"
        },
        {
          "internalType": "string",
          "name": "tran",
          "type": "string"
        }
      ],
      "name": "setTransactionHash",
      "outputs": [],
      "payable": false,
      "stateMutability": "nonpayable",
      "type": "function"
    }
  ],
  "bytecode": "0x6080604052600280546001600160a01b031916331790556001808055600055614dff8061002d6000396000f3fe608060405234801561001057600080fd5b506004361061018d5760003560e01c8063786ea161116100de578063b771f9e211610097578063cb1b5d7a11610071578063cb1b5d7a1461116d578063e55128ea1461118a578063ee707c1e1461122e578063f514ce361461124b5761018d565b8063b771f9e214611104578063b843bdee1461112a578063bae0ac7e146111475761018d565b8063786ea161146108b95780637a5afdec146109645780638640962714610b98578063a060436c14610bbe578063a435ecf814610e47578063b4c264c414610e6d5761018d565b80633334529e1161014b57806370ddedd61161012557806370ddedd61461083d5780637217eb2e1461087757806372df397e1461089457806374b59282146108b15761018d565b80633334529e1461069d57806336af1625146107cd578063588e79951461080e5761018d565b80623375b71461019257806306fe5830146104de57806308c387f21461060e5780630a036e25146106345780630aac6dee146106515780631d912fef14610677575b600080fd5b6104dc60048036036101008110156101a957600080fd5b810190602081018135600160201b8111156101c357600080fd5b8201836020820111156101d557600080fd5b803590602001918460018302840111600160201b831117156101f657600080fd5b91908080601f0160208091040260200160405190810160405280939291908181526020018383808284376000920191909152509295949360208101935035915050600160201b81111561024857600080fd5b82018360208201111561025a57600080fd5b803590602001918460018302840111600160201b8311171561027b57600080fd5b91908080601f0160208091040260200160405190810160405280939291908181526020018383808284376000920191909152509295949360208101935035915050600160201b8111156102cd57600080fd5b8201836020820111156102df57600080fd5b803590602001918460018302840111600160201b8311171561030057600080fd5b91908080601f0160208091040260200160405190810160405280939291908181526020018383808284376000920191909152509295949360208101935035915050600160201b81111561035257600080fd5b82018360208201111561036457600080fd5b803590602001918460018302840111600160201b8311171561038557600080fd5b91908080601f0160208091040260200160405190810160405280939291908181526020018383808284376000920191909152509295949360208101935035915050600160201b8111156103d757600080fd5b8201836020820111156103e957600080fd5b803590602001918460018302840111600160201b8311171561040a57600080fd5b91908080601f0160208091040260200160405190810160405280939291908181526020018383808284376000920191909152509295843595602086013595919450925060608101915060400135600160201b81111561046857600080fd5b82018360208201111561047a57600080fd5b803590602001918460018302840111600160201b8311171561049b57600080fd5b91908080601f016020809104026020016040519081016040528093929190818152602001838380828437600092019190915250929550611253945050505050565b005b6104dc600480360360608110156104f457600080fd5b81359190810190604081016020820135600160201b81111561051557600080fd5b82018360208201111561052757600080fd5b803590602001918460018302840111600160201b8311171561054857600080fd5b91908080601f0160208091040260200160405190810160405280939291908181526020018383808284376000920191909152509295949360208101935035915050600160201b81111561059a57600080fd5b8201836020820111156105ac57600080fd5b803590602001918460018302840111600160201b831117156105cd57600080fd5b91908080601f01602080910402602001604051908101604052809392919081815260200183838082843760009201919091525092955061183b945050505050565b6104dc6004803603602081101561062457600080fd5b50356001600160a01b0316611cc3565b6104dc6004803603602081101561064a57600080fd5b5035611d53565b6104dc6004803603602081101561066757600080fd5b50356001600160a01b031661214f565b6104dc6004803603602081101561068d57600080fd5b50356001600160a01b03166121dd565b6104dc600480360360608110156106b357600080fd5b81359190810190604081016020820135600160201b8111156106d457600080fd5b8201836020820111156106e657600080fd5b803590602001918460018302840111600160201b8311171561070757600080fd5b91908080601f0160208091040260200160405190810160405280939291908181526020018383808284376000920191909152509295949360208101935035915050600160201b81111561075957600080fd5b82018360208201111561076b57600080fd5b803590602001918460018302840111600160201b8311171561078c57600080fd5b91908080601f0160208091040260200160405190810160405280939291908181526020018383808284376000920191909152509295506122a9945050505050565b6107ea600480360360208110156107e357600080fd5b503561276c565b604051808260088111156107fa57fe5b60ff16815260200191505060405180910390f35b61082b6004803603602081101561082457600080fd5b503561278b565b60408051918252519081900360200190f35b6108636004803603602081101561085357600080fd5b50356001600160a01b031661279d565b604080519115158252519081900360200190f35b6104dc6004803603602081101561088d57600080fd5b50356127f3565b6104dc600480360360208110156108aa57600080fd5b5035612c14565b61082b613079565b6104dc600480360360408110156108cf57600080fd5b81359190810190604081016020820135600160201b8111156108f057600080fd5b82018360208201111561090257600080fd5b803590602001918460018302840111600160201b8311171561092357600080fd5b91908080601f016020809104026020016040519081016040528093929190818152602001838380828437600092019190915250929550613080945050505050565b610a116004803603606081101561097a57600080fd5b81359190810190604081016020820135600160201b81111561099b57600080fd5b8201836020820111156109ad57600080fd5b803590602001918460018302840111600160201b831117156109ce57600080fd5b91908080601f01602080910402602001604051908101604052809392919081815260200183838082843760009201919091525092955050913592506130cc915050565b604051808981526020018060200188815260200187815260200180602001866008811115610a3b57fe5b60ff168152602001856001600160a01b03166001600160a01b031681526020018060200184810384528b818151815260200191508051906020019080838360005b83811015610a94578181015183820152602001610a7c565b50505050905090810190601f168015610ac15780820380516001836020036101000a031916815260200191505b5084810383528851815288516020918201918a019080838360005b83811015610af4578181015183820152602001610adc565b50505050905090810190601f168015610b215780820380516001836020036101000a031916815260200191505b50848103825285518152855160209182019187019080838360005b83811015610b54578181015183820152602001610b3c565b50505050905090810190601f168015610b815780820380516001836020036101000a031916815260200191505b509b50505050505050505050505060405180910390f35b61086360048036036020811015610bae57600080fd5b50356001600160a01b0316613413565b610c6b60048036036060811015610bd457600080fd5b81359190810190604081016020820135600160201b811115610bf557600080fd5b820183602082011115610c0757600080fd5b803590602001918460018302840111600160201b83111715610c2857600080fd5b91908080601f016020809104026020016040519081016040528093929190818152602001838380828437600092019190915250929550509135925061346e915050565b6040518080602001876001600160a01b03166001600160a01b031681526020018060200180602001866001600160a01b03166001600160a01b031681526020018060200185810385528b818151815260200191508051906020019080838360005b83811015610ce4578181015183820152602001610ccc565b50505050905090810190601f168015610d115780820380516001836020036101000a031916815260200191505b5085810384528951815289516020918201918b019080838360005b83811015610d44578181015183820152602001610d2c565b50505050905090810190601f168015610d715780820380516001836020036101000a031916815260200191505b5085810383528851815288516020918201918a019080838360005b83811015610da4578181015183820152602001610d8c565b50505050905090810190601f168015610dd15780820380516001836020036101000a031916815260200191505b50858103825286518152865160209182019188019080838360005b83811015610e04578181015183820152602001610dec565b50505050905090810190601f168015610e315780820380516001836020036101000a031916815260200191505b509a505050505050505050505060405180910390f35b61086360048036036020811015610e5d57600080fd5b50356001600160a01b031661382c565b610f1a60048036036060811015610e8357600080fd5b81359190810190604081016020820135600160201b811115610ea457600080fd5b820183602082011115610eb657600080fd5b803590602001918460018302840111600160201b83111715610ed757600080fd5b91908080601f0160208091040260200160405190810160405280939291908181526020018383808284376000920191909152509295505091359250613888915050565b60405180898152602001888152602001876001600160a01b03166001600160a01b03168152602001866001600160a01b03166001600160a01b0316815260200180602001806020018060200180602001858103855289818151815260200191508051906020019080838360005b83811015610f9f578181015183820152602001610f87565b50505050905090810190601f168015610fcc5780820380516001836020036101000a031916815260200191505b5085810384528851815288516020918201918a019080838360005b83811015610fff578181015183820152602001610fe7565b50505050905090810190601f16801561102c5780820380516001836020036101000a031916815260200191505b50858103835287518152875160209182019189019080838360005b8381101561105f578181015183820152602001611047565b50505050905090810190601f16801561108c5780820380516001836020036101000a031916815260200191505b50858103825286518152865160209182019188019080838360005b838110156110bf5781810151838201526020016110a7565b50505050905090810190601f1680156110ec5780820380516001836020036101000a031916815260200191505b509c5050505050505050505050505060405180910390f35b6108636004803603602081101561111a57600080fd5b50356001600160a01b0316613c0a565b6104dc6004803603602081101561114057600080fd5b5035613c87565b6104dc6004803603602081101561115d57600080fd5b50356001600160a01b0316614097565b6104dc6004803603602081101561118357600080fd5b5035614167565b6104dc600480360360208110156111a057600080fd5b810190602081018135600160201b8111156111ba57600080fd5b8201836020820111156111cc57600080fd5b803590602001918460018302840111600160201b831117156111ed57600080fd5b91908080601f01602080910402602001604051908101604052809392919081815260200183838082843760009201919091525092955061460f945050505050565b6104dc6004803603602081101561124457600080fd5b503561465c565b61082b614aa0565b61125c3361279d565b6112a7576040805162461bcd60e51b815260206004820152601760248201527613585b9d599858dd1d5c995c88185d5d1a1bdc9a5e9959604a1b604482015290519081900360640190fd5b6000546112b2614b0f565b600154602080830191909152828252608080830180519092018c9052815160409081018c905282516060018b9052825190910189905281514260a0909101523390830181905290515261130481614aa6565b600060608201526113188187878787614aee565b60008281526003602090815260409182902083518155908301516001820155908201516002820180546001600160a01b0319166001600160a01b03909216919091178082556060840151849392909160ff60a01b1916600160a01b83600881111561137f57fe5b0217905550608082015180516003830180546001600160a01b0319166001600160a01b0390921691909117815560208083015180516113c49260048701920190614b7a565b50604082015180516113e0916002840191602090910190614b7a565b50606082015180516113fc916003840191602090910190614b7a565b5060808201518051611418916004840191602090910190614b7a565b5060a0918201516005919091015582015180516009830180546001600160a01b0319166001600160a01b03909216919091178155602080830151805161146492600a8701920190614b7a565b5060408201518051611480916002840191602090910190614b7a565b50505060c082015180518051600c8401916114a091839160200190614b7a565b50602082810151600183015560408301516002830155606083015180516114cd9260038501920190614b7a565b50505060e082015180516010830180546001600160a01b0319166001600160a01b0390921691909117815560208083015180516115109260118701920190614b7a565b506040820151805161152c916002840191602090910190614b7a565b5050506101008201516013820180546001600160a01b0319166001600160a01b039092169190911790556101208201518051611572916014840191602090910190614b7a565b50505060008281526005602090815260408083208054600180820180845592865294849020865160159092020190815592850151938301939093558301516002820180546001600160a01b0319166001600160a01b03909216919091178082556060850151859392909160ff60a01b1916600160a01b8360088111156115f457fe5b0217905550608082015180516003830180546001600160a01b0319166001600160a01b0390921691909117815560208083015180516116399260048701920190614b7a565b5060408201518051611655916002840191602090910190614b7a565b5060608201518051611671916003840191602090910190614b7a565b506080820151805161168d916004840191602090910190614b7a565b5060a0918201516005919091015582015180516009830180546001600160a01b0319166001600160a01b0390921691909117815560208083015180516116d992600a8701920190614b7a565b50604082015180516116f5916002840191602090910190614b7a565b50505060c082015180518051600c84019161171591839160200190614b7a565b50602082810151600183015560408301516002830155606083015180516117429260038501920190614b7a565b50505060e082015180516010830180546001600160a01b0319166001600160a01b0390921691909117815560208083015180516117859260118701920190614b7a565b50604082015180516117a1916002840191602090910190614b7a565b5050506101008201516013820180546001600160a01b0319166001600160a01b0390921691909117905561012082015180516117e7916014840191602090910190614b7a565b5050600180548101815560008054909101905550506040805183815290517ffa8b86dc70998afe41b669191197287e947b6e2be01000fa40990fbb4bbda3c09181900360200190a150505050505050505050565b826005600082815260036020526040902060020154600160a01b900460ff16600881111561186557fe5b146118a15760405162461bcd60e51b8152600401808060200182810382526025815260200180614d846025913960400191505060405180910390fd5b6118aa3361382c565b6118f1576040805162461bcd60e51b815260206004820152601360248201527211195b1a5d995c9e48185d5d1a1bdc9a5e9959606a1b604482015290519081900360640190fd5b6000848152600360209081526040909120600281018054336001600160a01b031991821681179092556010830180549091169091179055845161193c92601190920191860190614b7a565b506000848152600360209081526040909120835161196292601290920191850190614b7a565b5060008481526003602081815260408084206002808201805460ff60a01b19908116600360a11b17825560058652938720958552855460018181018089559789529590972083546015909802019687558483015494870194909455835490860180546001600160a01b0319166001600160a01b0390921691909117808255935494959194919360ff600160a01b9384900416939192911690836008811115611a0657fe5b02179055506003828101805491830180546001600160a01b0319166001600160a01b0390931692909217825560048085018054929392611a5c928601919060026000196001831615610100020190911604614bf8565b5060028281018054611a81928481019291600019610100600183161502011604614bf8565b5060038201816003019080546001816001161561010002031660029004611aa9929190614bf8565b5060048201816004019080546001816001161561010002031660029004611ad1929190614bf8565b506005918201549101556009828101805491830180546001600160a01b0319166001600160a01b03909316929092178255600a8085018054929392611b2c928601919060026000196001831615610100020190911604614bf8565b5060028281018054611b51928481019291600019610100600183161502011604614bf8565b505050600c82810180549091830190611b80908290849060026000196101006001841615020190911604614bf8565b50600182015481600101556002820154816002015560038201816003019080546001816001161561010002031660029004611bbc929190614bf8565b5050506010828101805491830180546001600160a01b0319166001600160a01b0390931692909217825560118085018054929392611c10928601919060026000196001831615610100020190911604614bf8565b5060028281018054611c35928481019291600019610100600183161502011604614bf8565b50505060138281015490820180546001600160a01b0319166001600160a01b0390921691909117905560148083018054611c85928401919060026000196001831615610100020190911604614bf8565b50506040805187815290517f534370067e8d53b5e551b427977b22cf1bbdd75bc6aec23650133f971a7fb3f99350908190036020019150a150505050565b6001600160a01b038116611cf8576040805162461bcd60e51b8152602060048201526000602482015290519081900360640190fd5b611d0181613413565b15611d2d576040805162461bcd60e51b8152602060048201526000602482015290519081900360640190fd5b6001600160a01b03166000908152600460205260409020805461ff001916610100179055565b600081815260036020819052604090912001546001600160a01b0316338114611d9d576040805162461bcd60e51b8152602060048201526000602482015290519081900360640190fd5b611da63361279d565b611df1576040805162461bcd60e51b815260206004820152601760248201527613585b9d599858dd1d5c995c88185d5d1a1bdc9a5e9959604a1b604482015290519081900360640190fd5b60008281526003602081815260408084206002808201805460ff60a01b19908116600160a11b17825560058652938720958552855460018181018089559789529590972083546015909802019687558483015494870194909455835490860180546001600160a01b0319166001600160a01b0390921691909117808255935494959194919360ff600160a01b9384900416939192911690836008811115611e9457fe5b02179055506003828101805491830180546001600160a01b0319166001600160a01b0390931692909217825560048085018054929392611eea928601919060026000196001831615610100020190911604614bf8565b5060028281018054611f0f928481019291600019610100600183161502011604614bf8565b5060038201816003019080546001816001161561010002031660029004611f37929190614bf8565b5060048201816004019080546001816001161561010002031660029004611f5f929190614bf8565b506005918201549101556009828101805491830180546001600160a01b0319166001600160a01b03909316929092178255600a8085018054929392611fba928601919060026000196001831615610100020190911604614bf8565b5060028281018054611fdf928481019291600019610100600183161502011604614bf8565b505050600c8281018054909183019061200e908290849060026000196101006001841615020190911604614bf8565b5060018201548160010155600282015481600201556003820181600301908054600181600116156101000203166002900461204a929190614bf8565b5050506010828101805491830180546001600160a01b0319166001600160a01b039093169290921782556011808501805492939261209e928601919060026000196001831615610100020190911604614bf8565b50600282810180546120c3928481019291600019610100600183161502011604614bf8565b50505060138281015490820180546001600160a01b0319166001600160a01b0390921691909117905560148083018054612113928401919060026000196001831615610100020190911604614bf8565b50506040805185815290517f25727bef8a186dd95a062151451f2d651551b53124c18208d7653b1217ae31ba9350908190036020019150a15050565b6001600160a01b038116612184576040805162461bcd60e51b8152602060048201526000602482015290519081900360640190fd5b61218d8161279d565b156121b9576040805162461bcd60e51b8152602060048201526000602482015290519081900360640190fd5b6001600160a01b03166000908152600460205260409020805460ff19166001179055565b6001600160a01b038116612232576040805162461bcd60e51b815260206004820152601760248201527610dd5cdd1bdb595c881b9bdd08185d5d1a1bdc9a5e9959604a1b604482015290519081900360640190fd5b61223b8161382c565b1561227f576040805162461bcd60e51b815260206004820152600f60248201526e10dd5cdd1bdb595c881b9959591959608a1b604482015290519081900360640190fd5b6001600160a01b03166000908152600460205260409020805463ff00000019166301000000179055565b826002600082815260036020526040902060020154600160a01b900460ff1660088111156122d357fe5b1461230f5760405162461bcd60e51b8152600401808060200182810382526022815260200180614da96022913960400191505060405180910390fd5b6000848152600360205260409020600901546001600160a01b0316338114612358576040805162461bcd60e51b8152602060048201526000602482015290519081900360640190fd5b61236133613413565b6123ab576040805162461bcd60e51b8152602060048201526016602482015275151a1a5c99081c185c9d1e48185d5d1a1bdc9a5e995960521b604482015290519081900360640190fd5b60008581526003602090815260409091206002810180546001600160a01b0319163317905585516123e492600a90920191870190614b7a565b506000858152600360209081526040909120845161240a92600b90920191860190614b7a565b5060008581526003602081815260408084206002808201805460ff60a01b19908116600360a01b17825560058652938720958552855460018181018089559789529590972083546015909802019687558483015494870194909455835490860180546001600160a01b0319166001600160a01b0390921691909117808255935494959194919360ff600160a01b93849004169391929116908360088111156124ae57fe5b02179055506003828101805491830180546001600160a01b0319166001600160a01b0390931692909217825560048085018054929392612504928601919060026000196001831615610100020190911604614bf8565b5060028281018054612529928481019291600019610100600183161502011604614bf8565b5060038201816003019080546001816001161561010002031660029004612551929190614bf8565b5060048201816004019080546001816001161561010002031660029004612579929190614bf8565b506005918201549101556009828101805491830180546001600160a01b0319166001600160a01b03909316929092178255600a80850180549293926125d4928601919060026000196001831615610100020190911604614bf8565b50600282810180546125f9928481019291600019610100600183161502011604614bf8565b505050600c82810180549091830190612628908290849060026000196101006001841615020190911604614bf8565b50600182015481600101556002820154816002015560038201816003019080546001816001161561010002031660029004612664929190614bf8565b5050506010828101805491830180546001600160a01b0319166001600160a01b03909316929092178255601180850180549293926126b8928601919060026000196001831615610100020190911604614bf8565b50600282810180546126dd928481019291600019610100600183161502011604614bf8565b50505060138281015490820180546001600160a01b0319166001600160a01b039092169190911790556014808301805461272d928401919060026000196001831615610100020190911604614bf8565b50506040805188815290517fa22971300ba7d9ca2113cf57c3238cde86a32cfba0c31a13ad86a23bde3facf29350908190036020019150a15050505050565b600090815260036020526040902060020154600160a01b900460ff1690565b60009081526005602052604090205490565b60006001600160a01b0382166127d4576040805162461bcd60e51b8152602060048201526000602482015290519081900360640190fd5b506001600160a01b031660009081526004602052604090205460ff1690565b806003600082815260036020526040902060020154600160a01b900460ff16600881111561281d57fe5b146128595760405162461bcd60e51b8152600401808060200182810382526026815260200180614d3c6026913960400191505060405180910390fd5b61286233613c0a565b6128a9576040805162461bcd60e51b815260206004820152601360248201527210dd5cdd1bdb595c88185d5d1a1bdc9a5e9959606a1b604482015290519081900360640190fd5b60008281526003602081815260408084206013810180546001600160a01b031990811633179091556002808301805460ff60a01b19908116600160a21b1782556005875294882096865286546001818101808a55988a529690982084546015909902019788558584015495880195909555845490870180549092166001600160a01b0390911617808255935494959194919360ff600160a01b938490041693919291169083600881111561295957fe5b02179055506003828101805491830180546001600160a01b0319166001600160a01b03909316929092178255600480850180549293926129af928601919060026000196001831615610100020190911604614bf8565b50600282810180546129d4928481019291600019610100600183161502011604614bf8565b50600382018160030190805460018160011615610100020316600290046129fc929190614bf8565b5060048201816004019080546001816001161561010002031660029004612a24929190614bf8565b506005918201549101556009828101805491830180546001600160a01b0319166001600160a01b03909316929092178255600a8085018054929392612a7f928601919060026000196001831615610100020190911604614bf8565b5060028281018054612aa4928481019291600019610100600183161502011604614bf8565b505050600c82810180549091830190612ad3908290849060026000196101006001841615020190911604614bf8565b50600182015481600101556002820154816002015560038201816003019080546001816001161561010002031660029004612b0f929190614bf8565b5050506010828101805491830180546001600160a01b0319166001600160a01b0390931692909217825560118085018054929392612b63928601919060026000196001831615610100020190911604614bf8565b5060028281018054612b88928481019291600019610100600183161502011604614bf8565b50505060138281015490820180546001600160a01b0319166001600160a01b0390921691909117905560148083018054612bd8928401919060026000196001831615610100020190911604614bf8565b50506040805185815290517ffd054e59d299873fab61a3c67d86d3a139b75dcd5cd82894d8983fc5e2669c829350908190036020019150a15050565b806007600082815260036020526040902060020154600160a01b900460ff166008811115612c3e57fe5b14612c7a5760405162461bcd60e51b8152600401808060200182810382526022815260200180614d626022913960400191505060405180910390fd5b6000828152600360205260409020601301546001600160a01b0316338114612cc3576040805162461bcd60e51b8152602060048201526000602482015290519081900360640190fd5b612ccc33613c0a565b612d13576040805162461bcd60e51b815260206004820152601360248201527210dd5cdd1bdb595c88185d5d1a1bdc9a5e9959606a1b604482015290519081900360640190fd5b6000838152600360208181526040808420600280820180546001600160a01b0319908116331760ff60a01b19908116600160a31b1783556005875294882096865286546001818101808a55988a529690982084546015909902019788558584015495880195909555805491870180549095166001600160a01b0390921691909117808555905494959194919360ff600160a01b9384900416939092911690836008811115612dbd57fe5b02179055506003828101805491830180546001600160a01b0319166001600160a01b0390931692909217825560048085018054929392612e13928601919060026000196001831615610100020190911604614bf8565b5060028281018054612e38928481019291600019610100600183161502011604614bf8565b5060038201816003019080546001816001161561010002031660029004612e60929190614bf8565b5060048201816004019080546001816001161561010002031660029004612e88929190614bf8565b506005918201549101556009828101805491830180546001600160a01b0319166001600160a01b03909316929092178255600a8085018054929392612ee3928601919060026000196001831615610100020190911604614bf8565b5060028281018054612f08928481019291600019610100600183161502011604614bf8565b505050600c82810180549091830190612f37908290849060026000196101006001841615020190911604614bf8565b50600182015481600101556002820154816002015560038201816003019080546001816001161561010002031660029004612f73929190614bf8565b5050506010828101805491830180546001600160a01b0319166001600160a01b0390931692909217825560118085018054929392612fc7928601919060026000196001831615610100020190911604614bf8565b5060028281018054612fec928481019291600019610100600183161502011604614bf8565b50505060138281015490820180546001600160a01b0319166001600160a01b039092169190911790556014808301805461303c928401919060026000196001831615610100020190911604614bf8565b50506040805186815290517f8a746d5b91a9a334d1abbeee7d031aac6d5c59ea6e982ac06aef4346cce5749e9350908190036020019150a1505050565b6000545b90565b60008281526005602052604081208054600019810190811061309e57fe5b90600052602060002090601502019050818160140190805190602001906130c6929190614b7a565b50505050565b60008381526003602052604081205460609082908190839082908190839061312a576040805162461bcd60e51b815260206004820152600c60248201526b141c9bd91d58dd08195e1a5d60a21b604482015290519081900360640190fd5b60008b815260036020908152604091829020825180840190935260078352661c1c9bd91d58dd60ca1b928201929092528b51908c01207f36a4a183f82db747ab399ca476ab84cc3def6abe3ac63748d03b4584af38d0571415613197575060008b81526003602052604090205b604080518082019091526007815266686973746f727960c81b6020918201528b51908c01207f5cb4ee416d23b95cd5367c15d6b361ec02394b3d48d629418b0e5e7eda675858141561320e5760008c815260056020526040902080548b9081106131fd57fe5b906000526020600020906015020190505b6008810154600d820154600e8301546002808501546009860154600c870180546040805160206101006001851615026000190190931696909604601f810183900483028701830190915280865291969594600f8a0194600160a01b900460ff16936001600160a01b031692600a8b01928991908301828280156132d25780601f106132a7576101008083540402835291602001916132d2565b820191906000526020600020905b8154815290600101906020018083116132b557829003601f168201915b5050875460408051602060026001851615610100026000190190941693909304601f8101849004840282018401909252818152959c50899450925084019050828280156133605780601f1061333557610100808354040283529160200191613360565b820191906000526020600020905b81548152906001019060200180831161334357829003601f168201915b5050845460408051602060026001851615610100026000190190941693909304601f8101849004840282018401909252818152959950869450925084019050828280156133ee5780601f106133c3576101008083540402835291602001916133ee565b820191906000526020600020905b8154815290600101906020018083116133d157829003601f168201915b5050505050905098509850985098509850985098509850509397509397509397509397565b60006001600160a01b03821661344a576040805162461bcd60e51b8152602060048201526000602482015290519081900360640190fd5b506001600160a01b0316600090815260046020526040902054610100900460ff1690565b6000838152600360205260408120546060919082908190839082906134c9576040805162461bcd60e51b815260206004820152600c60248201526b141c9bd91d58dd08195e1a5d60a21b604482015290519081900360640190fd5b600089815260036020908152604091829020825180840190935260078352661c1c9bd91d58dd60ca1b928201929092528951908a01207f36a4a183f82db747ab399ca476ab84cc3def6abe3ac63748d03b4584af38d0571415613536575060008981526003602052604090205b604080518082019091526007815266686973746f727960c81b6020918201528951908a01207f5cb4ee416d23b95cd5367c15d6b361ec02394b3d48d629418b0e5e7eda67585814156135ad5760008a815260056020526040902080548990811061359c57fe5b906000526020600020906015020190505b60108101546013820154600b8301805460408051602060026101006001861615026000190190941693909304601f810184900484028201840190925281815292946001600160a01b039081169460118801946012890194929091169260148901928891908301828280156136625780601f1061363757610100808354040283529160200191613662565b820191906000526020600020905b81548152906001019060200180831161364557829003601f168201915b5050875460408051602060026001851615610100026000190190941693909304601f8101849004840282018401909252818152959b50899450925084019050828280156136f05780601f106136c5576101008083540402835291602001916136f0565b820191906000526020600020905b8154815290600101906020018083116136d357829003601f168201915b5050865460408051602060026001851615610100026000190190941693909304601f81018490048402820184019092528181529599508894509250840190508282801561377e5780601f106137535761010080835404028352916020019161377e565b820191906000526020600020905b81548152906001019060200180831161376157829003601f168201915b5050845460408051602060026001851615610100026000190190941693909304601f81018490048402820184019092528181529598508694509250840190508282801561380c5780601f106137e15761010080835404028352916020019161380c565b820191906000526020600020905b8154815290600101906020018083116137ef57829003601f168201915b505050505090509650965096509650965096505093975093979195509350565b60006001600160a01b038216613863576040805162461bcd60e51b8152602060048201526000602482015290519081900360640190fd5b506001600160a01b031660009081526004602052604090205462010000900460ff1690565b6000838152600360205260408120548190819081906060908190819081906138e6576040805162461bcd60e51b815260206004820152600c60248201526b141c9bd91d58dd08195e1a5d60a21b604482015290519081900360640190fd5b60008b815260036020908152604091829020825180840190935260078352661c1c9bd91d58dd60ca1b928201929092528b51908c01207f36a4a183f82db747ab399ca476ab84cc3def6abe3ac63748d03b4584af38d0571415613953575060008b81526003602052604090205b604080518082019091526007815266686973746f727960c81b6020918201528b51908c01207f5cb4ee416d23b95cd5367c15d6b361ec02394b3d48d629418b0e5e7eda67585814156139ca5760008c815260056020526040902080548b9081106139b957fe5b906000526020600020906015020190505b8054600180830154600280850154600386015460048701805460408051602061010099841615999099026000190190921695909504601f810188900488028201880190955284815294956001600160a01b039384169593909216939092600589019260068a019260078b019291869190830182828015613a8b5780601f10613a6057610100808354040283529160200191613a8b565b820191906000526020600020905b815481529060010190602001808311613a6e57829003601f168201915b5050865460408051602060026001851615610100026000190190941693909304601f810184900484028201840190925281815295995088945092508401905082828015613b195780601f10613aee57610100808354040283529160200191613b19565b820191906000526020600020905b815481529060010190602001808311613afc57829003601f168201915b5050855460408051602060026001851615610100026000190190941693909304601f810184900484028201840190925281815295985087945092508401905082828015613ba75780601f10613b7c57610100808354040283529160200191613ba7565b820191906000526020600020905b815481529060010190602001808311613b8a57829003601f168201915b5050845460408051602060026001851615610100026000190190941693909304601f8101849004840282018401909252818152959750869450925084019050828280156133ee5780601f106133c3576101008083540402835291602001916133ee565b60006001600160a01b038216613c61576040805162461bcd60e51b815260206004820152601760248201527610dd5cdd1bdb595c881b9bdd08185d5d1a1bdc9a5e9959604a1b604482015290519081900360640190fd5b506001600160a01b03166000908152600460205260409020546301000000900460ff1690565b8060008082815260036020526040902060020154600160a01b900460ff166008811115613cb057fe5b14613cf9576040805162461bcd60e51b8152602060048201526014602482015273141c9bd91d58dd081b585b9d599858dd1d5c995960621b604482015290519081900360640190fd5b613d0233613413565b613d2d576040805162461bcd60e51b8152602060048201526000602482015290519081900360640190fd5b6000828152600360208181526040808420600981018054336001600160a01b03199182161790915560028083018054600160a01b60ff60a01b19918216811783556005885295892097875287546001818101808b55998b529790992085546015909a02019889558685015496890196909655805491880180546001600160a01b03909316929093169190911780835590549596929592949284900460ff169391921690836008811115613ddc57fe5b02179055506003828101805491830180546001600160a01b0319166001600160a01b0390931692909217825560048085018054929392613e32928601919060026000196001831615610100020190911604614bf8565b5060028281018054613e57928481019291600019610100600183161502011604614bf8565b5060038201816003019080546001816001161561010002031660029004613e7f929190614bf8565b5060048201816004019080546001816001161561010002031660029004613ea7929190614bf8565b506005918201549101556009828101805491830180546001600160a01b0319166001600160a01b03909316929092178255600a8085018054929392613f02928601919060026000196001831615610100020190911604614bf8565b5060028281018054613f27928481019291600019610100600183161502011604614bf8565b505050600c82810180549091830190613f56908290849060026000196101006001841615020190911604614bf8565b50600182015481600101556002820154816002015560038201816003019080546001816001161561010002031660029004613f92929190614bf8565b5050506010828101805491830180546001600160a01b0319166001600160a01b0390931692909217825560118085018054929392613fe6928601919060026000196001831615610100020190911604614bf8565b506002828101805461400b928481019291600019610100600183161502011604614bf8565b50505060138281015490820180546001600160a01b0319166001600160a01b039092169190911790556014808301805461405b928401919060026000196001831615610100020190911604614bf8565b50506040805185815290517f112c8adc962c1de46b0ae9499cd428dc90feb4c13a4df0c69d7e5e27ab34ae879350908190036020019150a15050565b6001600160a01b0381166140f2576040805162461bcd60e51b815260206004820152601760248201527f44656c6976657279206e6f7420617574686f72697a6564000000000000000000604482015290519081900360640190fd5b6140fb8161382c565b1561413f576040805162461bcd60e51b815260206004820152600f60248201526e11195b1a5d995c9e481b9959591959608a1b604482015290519081900360640190fd5b6001600160a01b03166000908152600460205260409020805462ff0000191662010000179055565b806006600082815260036020526040902060020154600160a01b900460ff16600881111561419157fe5b146141cd5760405162461bcd60e51b8152600401808060200182810382526023815260200180614d196023913960400191505060405180910390fd5b6000828152600360205260409020600201546001600160a01b0316338114614216576040805162461bcd60e51b8152602060048201526000602482015290519081900360640190fd5b6000838152600360205260409020601001546001600160a01b031633811461425f576040805162461bcd60e51b8152602060048201526000602482015290519081900360640190fd5b6142683361382c565b6142af576040805162461bcd60e51b815260206004820152601360248201527211195b1a5d995c9e48185d5d1a1bdc9a5e9959606a1b604482015290519081900360640190fd5b60008481526003602081815260408084206002808201805460ff60a01b19908116600760a01b17825560058652938720958552855460018181018089559789529590972083546015909802019687558483015494870194909455835490860180546001600160a01b0319166001600160a01b0390921691909117808255935494959194919360ff600160a01b938490041693919291169083600881111561435257fe5b02179055506003828101805491830180546001600160a01b0319166001600160a01b03909316929092178255600480850180549293926143a8928601919060026000196001831615610100020190911604614bf8565b50600282810180546143cd928481019291600019610100600183161502011604614bf8565b50600382018160030190805460018160011615610100020316600290046143f5929190614bf8565b506004820181600401908054600181600116156101000203166002900461441d929190614bf8565b506005918201549101556009828101805491830180546001600160a01b0319166001600160a01b03909316929092178255600a8085018054929392614478928601919060026000196001831615610100020190911604614bf8565b506002828101805461449d928481019291600019610100600183161502011604614bf8565b505050600c828101805490918301906144cc908290849060026000196101006001841615020190911604614bf8565b50600182015481600101556002820154816002015560038201816003019080546001816001161561010002031660029004614508929190614bf8565b5050506010828101805491830180546001600160a01b0319166001600160a01b039093169290921782556011808501805492939261455c928601919060026000196001831615610100020190911604614bf8565b5060028281018054614581928481019291600019610100600183161502011604614bf8565b50505060138281015490820180546001600160a01b0319166001600160a01b03909216919091179055601480830180546145d1928401919060026000196001831615610100020190911604614bf8565b50506040805187815290517f18c3aaf5f6cc3f3e3960324271ea159c7e28d1b54d54c78cf7f1bc8307d391a29350908190036020019150a150505050565b6000805460001990810182526005602052604090912080548392810190811061463457fe5b90600052602060002090601502016014019080519060200190614658929190614b7a565b5050565b6000818152600360205260409020600201546001600160a01b03163381146146a5576040805162461bcd60e51b8152602060048201526000602482015290519081900360640190fd5b6000828152600360205260409020600901546001600160a01b03163381146146ee576040805162461bcd60e51b8152602060048201526000602482015290519081900360640190fd5b6146f733613413565b614741576040805162461bcd60e51b8152602060048201526016602482015275151a1a5c99081c185c9d1e48185d5d1a1bdc9a5e995960521b604482015290519081900360640190fd5b60008381526003602081815260408084206002808201805460ff60a01b19908116600560a01b17825560058652938720958552855460018181018089559789529590972083546015909802019687558483015494870194909455835490860180546001600160a01b0319166001600160a01b0390921691909117808255935494959194919360ff600160a01b93849004169391929116908360088111156147e457fe5b02179055506003828101805491830180546001600160a01b0319166001600160a01b039093169290921782556004808501805492939261483a928601919060026000196001831615610100020190911604614bf8565b506002828101805461485f928481019291600019610100600183161502011604614bf8565b5060038201816003019080546001816001161561010002031660029004614887929190614bf8565b50600482018160040190805460018160011615610100020316600290046148af929190614bf8565b506005918201549101556009828101805491830180546001600160a01b0319166001600160a01b03909316929092178255600a808501805492939261490a928601919060026000196001831615610100020190911604614bf8565b506002828101805461492f928481019291600019610100600183161502011604614bf8565b505050600c8281018054909183019061495e908290849060026000196101006001841615020190911604614bf8565b5060018201548160010155600282015481600201556003820181600301908054600181600116156101000203166002900461499a929190614bf8565b5050506010828101805491830180546001600160a01b0319166001600160a01b03909316929092178255601180850180549293926149ee928601919060026000196001831615610100020190911604614bf8565b5060028281018054614a13928481019291600019610100600183161502011604614bf8565b50505060138281015490820180546001600160a01b0319166001600160a01b0390921691909117905560148083018054614a63928401919060026000196001831615610100020190911604614bf8565b50506040805186815290517ff2452d569e5bc407d222a6bcad7d4bb8bac5fae64ce52fa183bd77e34e0cc1479350908190036020019150a1505050565b60005481565b60a0810180516000908190528151606060209182018190529251604090810184905260e085018051849052805190920184905290510182905261010083015261012090910152565b60c09094018051939093528251602001919091528151604001525160600152565b60408051610140810182526000808252602082018190529181018290529060608201908152602001614b3f614c6d565b8152602001614b4c614cac565b8152602001614b59614cd6565b8152602001614b66614cac565b815260006020820152606060409091015290565b828054600181600116156101000203166002900490600052602060002090601f016020900481019282601f10614bbb57805160ff1916838001178555614be8565b82800160010185558215614be8579182015b82811115614be8578251825591602001919060010190614bcd565b50614bf4929150614cfe565b5090565b828054600181600116156101000203166002900490600052602060002090601f016020900481019282601f10614c315780548555614be8565b82800160010185558215614be857600052602060002091601f016020900482015b82811115614be8578254825591600101919060010190614c52565b6040518060c0016040528060006001600160a01b0316815260200160608152602001606081526020016060815260200160608152602001600081525090565b604051806060016040528060006001600160a01b0316815260200160608152602001606081525090565b6040518060800160405280606081526020016000815260200160008152602001606081525090565b61307d91905b80821115614bf45760008155600101614d0456fe50726f64756374206973207265636569766564206279207468652064656c697665727950726f647563742069732072656365697665642062792074686520746869726420706172747950726f647563742069732073686970706564206279207468652064656c697665727950726f6475637420697320736869707065642062792074686520746869726420706172747950726f647563742069732073686970706564206279206d616e756661637475726572a265627a7a72315820a3728022f74830eb42986ace46b42e0c9b1bfcf7655af54919852259624509b364736f6c63430005100032",
  "source": "// SPDX-License-Identifier: MIT\npragma solidity >=0.4.22 <0.9.0;\n\nimport \"./Structure.sol\";\n\ncontract SupplyChain {\n    event ManufacturerAdded(address indexed _account);\n\n    //product code\n    uint256 public uid;\n    uint256 sku;\n\n    address owner;\n\n    mapping(uint256 => Structure.Product) products;\n    mapping(address => Structure.Roles) roles;\n    mapping(uint256 => Structure.TrackProduct) trackProduct;\n\n    function hasManufacturerAdmin(address _account) public view returns (bool) {\n        require(_account != address(0), \"\");\n        return roles[_account].Manufacturer;\n    }\n\n    function addManufacturerAdmin(address _account) public {\n        require(_account != address(0), \"\");\n        require(!hasManufacturerAdmin(_account), \"\");\n\n        roles[_account].Manufacturer = true;\n    }\n\n    function hasThirdPartyAdmin(address _account) public view returns (bool) {\n        require(_account != address(0), \"\");\n        return roles[_account].ThirdParty;\n    }\n\n    function addThirdPartyAdmin(address _account) public {\n        require(_account != address(0), \"\");\n        require(!hasThirdPartyAdmin(_account), \"\");\n\n        roles[_account].ThirdParty = true;\n    }\n\n    function hasDeliveryAdmin(address _account) public view returns (bool) {\n        require(_account != address(0), \"\");\n        return roles[_account].Delivery;\n    }\n\n    function addDeliveryAdmin(address _account) public {\n        require(_account != address(0), \"Delivery not authorized\");\n        require(!hasDeliveryAdmin(_account), \"Delivery needed\");\n\n        roles[_account].Delivery = true;\n    }\n\n    function hasCustomerAdmin(address _account) public view returns (bool) {\n        require(_account != address(0), \"Customer not authorized\");\n        return roles[_account].Customer;\n    }\n\n    function addCustomerAdmin(address _account) public {\n        require(_account != address(0), \"Customer not authorized\");\n        require(!hasDeliveryAdmin(_account), \"Customer needed\");\n\n        roles[_account].Customer = true;\n    }\n\n    constructor() public payable {\n        owner = msg.sender;\n        sku = 1;\n        uid = 1;\n    }\n\n    event ProductManufacture(uint256 uid);\n    event PurchasedByThirdParty(uint256 uid);\n    event ShippedByManufacturer(uint256 uid);\n    event ReceivedByThirdParty(uint256 uid);\n    event PurchasedByCustomer(uint256 uid);\n    event ShippedByThirdParty(uint256 uid);\n    event ReceivedByDelivery(uint256 uid);\n    event ShippedByDelivery(uint256 uid);\n    event ReceivedByCustomer(uint256 uid);\n\n    modifier proveAddress(address add) {\n        require(msg.sender == add, \"\");\n        _;\n    }\n\n    modifier productManufacture(uint256 _uid) {\n        require(products[_uid].productState == Structure.State.ProductManufacture, \"Product manufactured\");\n        _;\n    }\n\n    modifier shippedByManufacturer(uint256 _uid) {\n        require(\n            products[_uid].productState == Structure.State.ShippedByManufacturer, \"Product is shipped by manufacturer\"\n        );\n        _;\n    }\n\n    modifier receivedByThirdParty(uint256 _uid) {\n        require(\n            products[_uid].productState == Structure.State.ReceivedByThirdParty, \"Product is received by the third party\"\n        );\n        _;\n    }\n\n    modifier purchasedByCustomer(uint256 _uid) {\n        require(\n            products[_uid].productState == Structure.State.PurchasedByCustomer, \"Product is purchased by the customer\"\n        );\n        _;\n    }\n\n    modifier shippedByThirdParty(uint256 _uid) {\n        require(\n            products[_uid].productState == Structure.State.ShippedByThirdParty, \"Product is shipped by the third party\"\n        );\n        _;\n    }\n\n    modifier receivedByDelivery(uint256 _uid) {\n        require(\n            products[_uid].productState == Structure.State.ReceivedByDelivery, \"Product is received by the delivery\"\n        );\n        _;\n    }\n\n    modifier shippedByDelivery(uint256 _uid) {\n        require(\n            products[_uid].productState == Structure.State.ShippedByDelivery, \"Product is shipped by the delivery\"\n        );\n        _;\n    }\n\n    modifier receivedByCustomer(uint256 _uid) {\n        require(\n            products[_uid].productState == Structure.State.ReceivedByCustomer, \"Product is received by the customer\"\n        );\n        _;\n    }\n\n    function manufactureEmptyInitialize(Structure.Product memory product)\n        internal\n        pure\n    {\n        address thirdParty;\n        string memory transaction;\n        string memory thirdPartyLongitude;\n        string memory thirdPartyLatitude;\n\n        address delivery;\n        string memory deliveryLongitude;\n        string memory deliveryLatitude;\n        address customer;\n\n        product.thirdparty.thirdParty = thirdParty;\n        product.thirdparty.thirdPartyLongitude = thirdPartyLongitude;\n        product.thirdparty.thirdPartyLatitude = thirdPartyLatitude;\n\n        product.delivery.delivery = delivery;\n        product.delivery.deliveryLongitude = deliveryLongitude;\n        product.delivery.deliveryLatitude = deliveryLatitude;\n\n        product.customer = customer;\n        product.transaction = transaction;\n    }\n\n    function manufactureProductInitialize(\n        Structure.Product memory product,\n        string memory productName,\n        uint256 productCode,\n        uint256 productPrice,\n        string memory productCategory\n    ) internal pure {\n        product.productdet.productName = productName;\n        product.productdet.productCode = productCode;\n        product.productdet.productPrice = productPrice;\n        product.productdet.productCategory = productCategory;\n    }\n\n    ///@dev STEP 1 : Manufactured a product.\n    function manufactureProduct(\n        string memory manufacturerName,\n        string memory manufacturerDetails,\n        string memory manufacturerLongitude,\n        string memory manufacturerLatitude,\n        string memory productName,\n        uint256 productCode,\n        uint256 productPrice,\n        string memory productCategory\n    ) public {\n        require(hasManufacturerAdmin(msg.sender), \"Manufacturer authorized\");\n        uint256 _uid = uid;\n        Structure.Product memory product;\n        product.sku = sku;\n        product.uid = _uid;\n        product.manufacturer.manufacturerName = manufacturerName;\n        product.manufacturer.manufacturerDetails = manufacturerDetails;\n        product.manufacturer.manufacturerLongitude = manufacturerLongitude;\n        product.manufacturer.manufacturerLatitude = manufacturerLatitude;\n        product.manufacturer.manufacturedDate = block.timestamp;\n\n        product.owner = msg.sender;\n        product.manufacturer.manufacturer = msg.sender;\n\n        manufactureEmptyInitialize(product);\n\n        product.productState = Structure.State.ProductManufacture;\n\n        manufactureProductInitialize(\n            product,\n            productName,\n            productCode,\n            productPrice,\n            productCategory\n        );\n\n        products[_uid] = product;\n\n        trackProduct[_uid].history.push(product);\n\n        sku++;\n        uid = uid + 1;\n\n        emit ProductManufacture(_uid);\n    }\n\n    ///@dev STEP 2 : Purchase of manufactured product by Third Party.\n    function purchaseByThirdParty(uint256 _uid) public productManufacture(_uid) {\n        require(hasThirdPartyAdmin(msg.sender), \"\");\n        products[_uid].thirdparty.thirdParty = msg.sender;\n        products[_uid].productState = Structure.State.PurchasedByThirdParty;\n        trackProduct[_uid].history.push(products[_uid]);\n\n        emit PurchasedByThirdParty(_uid);\n    }\n\n    ///@dev STEP 3 : Purchased product ship to Third Party.\n    function shipToThirdParty(uint256 _uid)\n        public\n        proveAddress(products[_uid].manufacturer.manufacturer)\n    {\n        require(hasManufacturerAdmin(msg.sender), \"Manufacturer authorized\");\n        products[_uid].productState = Structure.State.ShippedByManufacturer;\n        trackProduct[_uid].history.push(products[_uid]);\n\n        emit ShippedByManufacturer(_uid);\n    }\n\n    ///@dev STEP 4 : Received the shipped purchased product from Manufacturer.\n    function receiveByThirdParty(\n        uint256 _uid,\n        string memory thirdPartyLongitude,\n        string memory thirdPartyLatitude\n    )\n        public\n        shippedByManufacturer(_uid)\n        proveAddress(products[_uid].thirdparty.thirdParty)\n    {\n        require(hasThirdPartyAdmin(msg.sender), \"Third party authorized\");\n        products[_uid].owner = msg.sender;\n        products[_uid].thirdparty.thirdPartyLongitude = thirdPartyLongitude;\n        products[_uid].thirdparty.thirdPartyLatitude = thirdPartyLatitude;\n        products[_uid].productState = Structure.State.ReceivedByThirdParty;\n        trackProduct[_uid].history.push(products[_uid]);\n\n        emit ReceivedByThirdParty(_uid);\n    }\n\n    ///@dev STEP 5 : Purchase of a product from third party by Customer.\n    function purchaseByCustomer(uint256 _uid)\n        public\n        receivedByThirdParty(_uid)\n    {\n        require(hasCustomerAdmin(msg.sender), \"Customer authorized\");\n        products[_uid].customer = msg.sender;\n        products[_uid].productState = Structure.State.PurchasedByCustomer;\n        trackProduct[_uid].history.push(products[_uid]);\n\n        emit PurchasedByCustomer(_uid);\n    }\n\n    ///@dev STEP 7 : Shipping of purchased product to customer by third party.\n    function shipByThirdParty(uint256 _uid)\n        public\n        proveAddress(products[_uid].owner)\n        proveAddress(products[_uid].thirdparty.thirdParty)\n    {\n        require(hasThirdPartyAdmin(msg.sender), \"Third party authorized\");\n        products[_uid].productState = Structure.State.ShippedByThirdParty;\n        trackProduct[_uid].history.push(products[_uid]);\n\n        emit ShippedByThirdParty(_uid);\n    }\n\n    ///@dev STEP 8 : Receiveing of customer purchased product by delivery.\n    function receiveByDelivery(\n        uint256 _uid,\n        string memory deliveryLongitude,\n        string memory deliveryLatitude\n    ) public shippedByThirdParty(_uid) {\n        require(hasDeliveryAdmin(msg.sender), \"Delivery authorized\");\n        products[_uid].owner = msg.sender;\n        products[_uid].delivery.delivery = msg.sender;\n        products[_uid].delivery.deliveryLongitude = deliveryLongitude;\n        products[_uid].delivery.deliveryLatitude = deliveryLatitude;\n        products[_uid].productState = Structure.State.ReceivedByDelivery;\n        trackProduct[_uid].history.push(products[_uid]);\n\n        emit ReceivedByDelivery(_uid);\n    }\n\n    ///@dev STEP 9 : Shipping of customer purchased product by delivery.\n    function shipByDelivery(uint256 _uid)\n        public\n        receivedByDelivery(_uid)\n        proveAddress(products[_uid].owner)\n        proveAddress(products[_uid].delivery.delivery)\n    {\n        require(hasDeliveryAdmin(msg.sender), \"Delivery authorized\");\n        products[_uid].productState = Structure.State.ShippedByDelivery;\n        trackProduct[_uid].history.push(products[_uid]);\n\n        emit ShippedByDelivery(_uid);\n    }\n\n    ///@dev STEP 10 : Customer received the product.\n    function receiveByCustomer(uint256 _uid)\n        public\n        shippedByDelivery(_uid)\n        proveAddress(products[_uid].customer)\n    {\n        require(hasCustomerAdmin(msg.sender), \"Customer authorized\");\n        products[_uid].owner = msg.sender;\n        products[_uid].productState = Structure.State.ReceivedByCustomer;\n        trackProduct[_uid].history.push(products[_uid]);\n\n        emit ReceivedByCustomer(_uid);\n    }\n\n    ///@dev Fetch product Item\n    function fetchItemPart1(\n        uint256 _uid,\n        string memory _type,\n        uint256 i\n    )\n        public\n        view\n        returns (\n            uint256,\n            uint256,\n            address,\n            address,\n            string memory,\n            string memory,\n            string memory,\n            string memory\n        )\n    {\n        require(products[_uid].uid != 0, \"Product exit\");\n        Structure.Product storage product = products[_uid];\n        if (keccak256(bytes(_type)) == keccak256(bytes(\"product\"))) {\n            product = products[_uid];\n        }\n        if (keccak256(bytes(_type)) == keccak256(bytes(\"history\"))) {\n            product = trackProduct[_uid].history[i];\n        }\n        return (\n            product.uid,\n            product.sku,\n            product.owner,\n            product.manufacturer.manufacturer,\n            product.manufacturer.manufacturerName,\n            product.manufacturer.manufacturerDetails,\n            product.manufacturer.manufacturerLongitude,\n            product.manufacturer.manufacturerLatitude\n        );\n    }\n\n    ///@dev Fetch product Item\n    function fetchItemPart2(\n        uint256 _uid,\n        string memory _type,\n        uint256 i\n    )\n        public\n        view\n        returns (\n            uint256,\n            string memory,\n            uint256,\n            uint256,\n            string memory,\n            Structure.State,\n            address,\n            string memory\n        )\n    {\n        require(products[_uid].uid != 0, \"Product exit\");\n        Structure.Product storage product = products[_uid];\n        if (keccak256(bytes(_type)) == keccak256(bytes(\"product\"))) {\n            product = products[_uid];\n        }\n        if (keccak256(bytes(_type)) == keccak256(bytes(\"history\"))) {\n            product = trackProduct[_uid].history[i];\n        }\n        return (\n            product.manufacturer.manufacturedDate,\n            product.productdet.productName,\n            product.productdet.productCode,\n            product.productdet.productPrice,\n            product.productdet.productCategory,\n            product.productState,\n            product.thirdparty.thirdParty,\n            product.thirdparty.thirdPartyLongitude\n        );\n    }\n\n    function fetchItemPart3(\n        uint256 _uid,\n        string memory _type,\n        uint256 i\n    )\n        public\n        view\n        returns (\n            string memory,\n            address,\n            string memory,\n            string memory,\n            address,\n            string memory\n        )\n    {\n        require(products[_uid].uid != 0, \"Product exit\");\n        Structure.Product storage product = products[_uid];\n        if (keccak256(bytes(_type)) == keccak256(bytes(\"product\"))) {\n            product = products[_uid];\n        }\n        if (keccak256(bytes(_type)) == keccak256(bytes(\"history\"))) {\n            product = trackProduct[_uid].history[i];\n        }\n        return (\n            product.thirdparty.thirdPartyLatitude,\n            product.delivery.delivery,\n            product.delivery.deliveryLongitude,\n            product.delivery.deliveryLatitude,\n            product.customer,\n            product.transaction\n        );\n    }\n\n    function fetchItemCount() public view returns (uint256) {\n        return uid;\n    }\n\n    function fetchItemHistoryLength(uint256 _uid)\n        public\n        view\n        returns (uint256)\n    {\n        return trackProduct[_uid].history.length;\n    }\n\n    function fetchItemState(uint256 _uid)\n        public\n        view\n        returns (Structure.State)\n    {\n        return products[_uid].productState;\n    }\n\n    function setTransactionHashOnManufacture(string memory tran) public {\n        trackProduct[uid - 1].history[\n            trackProduct[uid - 1].history.length - 1\n        ]\n            .transaction = tran;\n    }\n\n    function setTransactionHash(uint256 _uid, string memory tran) public {\n        Structure.Product storage p = trackProduct[_uid].history[\n                trackProduct[_uid].history.length - 1\n            ];\n        p.transaction = tran;\n    }\n}\n",
  "sourcePath": "/Users/sumyat/Documents/GitHub/SupplyChain/contracts/SupplyChain.sol",
  "compiler": {
    "name": "solc",
    "version": "0.5.16+commit.9c3226ce.Emscripten.clang"
  },
  "schemaVersion": "3.4.9",
  "updatedAt": "2022-09-15T13:53:18.237Z",
  "networkType": "ethereum",
  "devdoc": {
    "methods": {
      "fetchItemPart1(uint256,string,uint256)": {
        "details": "Fetch product Item"
      },
      "fetchItemPart2(uint256,string,uint256)": {
        "details": "Fetch product Item"
      },
      "manufactureProduct(string,string,string,string,string,uint256,uint256,string)": {
        "details": "STEP 1 : Manufactured a product."
      },
      "purchaseByCustomer(uint256)": {
        "details": "STEP 5 : Purchase of a product from third party by Customer."
      },
      "purchaseByThirdParty(uint256)": {
        "details": "STEP 2 : Purchase of manufactured product by Third Party."
      },
      "receiveByCustomer(uint256)": {
        "details": "STEP 10 : Customer received the product."
      },
      "receiveByDelivery(uint256,string,string)": {
        "details": "STEP 8 : Receiveing of customer purchased product by delivery."
      },
      "receiveByThirdParty(uint256,string,string)": {
        "details": "STEP 4 : Received the shipped purchased product from Manufacturer."
      },
      "shipByDelivery(uint256)": {
        "details": "STEP 9 : Shipping of customer purchased product by delivery."
      },
      "shipByThirdParty(uint256)": {
        "details": "STEP 7 : Shipping of purchased product to customer by third party."
      },
      "shipToThirdParty(uint256)": {
        "details": "STEP 3 : Purchased product ship to Third Party."
      }
    }
  },
  "userdoc": {
    "methods": {}
  }
}