{
  "contractName": "Thirdparty",
  "abi": [
    {
      "inputs": [],
      "payable": false,
      "stateMutability": "nonpayable",
      "type": "constructor"
    },
    {
      "anonymous": false,
      "inputs": [
        {
          "indexed": true,
          "internalType": "address",
          "name": "_account",
          "type": "address"
        }
      ],
      "name": "ThirdpartyAdded",
      "type": "event"
    },
    {
      "anonymous": false,
      "inputs": [
        {
          "indexed": true,
          "internalType": "address",
          "name": "_account",
          "type": "address"
        }
      ],
      "name": "ThirdpartyRemoved",
      "type": "event"
    },
    {
      "constant": true,
      "inputs": [
        {
          "internalType": "address",
          "name": "_account",
          "type": "address"
        }
      ],
      "name": "isThirdparty",
      "outputs": [
        {
          "internalType": "bool",
          "name": "",
          "type": "bool"
        }
      ],
      "payable": false,
      "stateMutability": "view",
      "type": "function"
    },
    {
      "constant": false,
      "inputs": [
        {
          "internalType": "address",
          "name": "_account",
          "type": "address"
        }
      ],
      "name": "addThirdparty",
      "outputs": [],
      "payable": false,
      "stateMutability": "nonpayable",
      "type": "function"
    },
    {
      "constant": false,
      "inputs": [],
      "name": "removeThirdparty",
      "outputs": [],
      "payable": false,
      "stateMutability": "nonpayable",
      "type": "function"
    }
  ],
  "bytecode": "0x608060405234801561001057600080fd5b5061002933600061005960201b6101821790919060201c565b60405133907f444c3d51dff46e2edf6e954c74fc74fe355222b88d4751e539ef67c56dbddbf490600090a261016f565b6001600160a01b03811661008e576040805162461bcd60e51b8152602060048201526000602482015290519081900360640190fd5b6100a182826001600160e01b0361011816565b156100f3576040805162461bcd60e51b815260206004820152601f60248201527f526f6c65733a206163636f756e7420616c72656164792068617320726f6c6500604482015290519081900360640190fd5b6001600160a01b0316600090815260209190915260409020805460ff19166001179055565b60006001600160a01b03821661014f576040805162461bcd60e51b8152602060048201526000602482015290519081900360640190fd5b506001600160a01b03166000908152602091909152604090205460ff1690565b6103508061017e6000396000f3fe608060405234801561001057600080fd5b50600436106100415760003560e01c80636a04fd9614610046578063b74fd0b51461006e578063e3d89b3514610076575b600080fd5b61006c6004803603602081101561005c57600080fd5b50356001600160a01b03166100b0565b005b61006c61012c565b61009c6004803603602081101561008c57600080fd5b50356001600160a01b031661016a565b604080519115158252519081900360200190f35b6100b93361016a565b6100e4576040805162461bcd60e51b8152602060048201526000602482015290519081900360640190fd5b6100f560008263ffffffff61018216565b6040516001600160a01b038216907f444c3d51dff46e2edf6e954c74fc74fe355222b88d4751e539ef67c56dbddbf490600090a250565b61013d60003363ffffffff61023816565b60405133907f9929e570529cf158ba0cb5b9338fd1549d34af63395e0f88a40f3901652c18fc90600090a2565b600061017c818363ffffffff6102c416565b92915050565b6001600160a01b0381166101b7576040805162461bcd60e51b8152602060048201526000602482015290519081900360640190fd5b6101c182826102c4565b15610213576040805162461bcd60e51b815260206004820152601f60248201527f526f6c65733a206163636f756e7420616c72656164792068617320726f6c6500604482015290519081900360640190fd5b6001600160a01b0316600090815260209190915260409020805460ff19166001179055565b6001600160a01b03811661026d576040805162461bcd60e51b8152602060048201526000602482015290519081900360640190fd5b61027782826102c4565b6102a2576040805162461bcd60e51b8152602060048201526000602482015290519081900360640190fd5b6001600160a01b0316600090815260209190915260409020805460ff19169055565b60006001600160a01b0382166102fb576040805162461bcd60e51b8152602060048201526000602482015290519081900360640190fd5b506001600160a01b03166000908152602091909152604090205460ff169056fea265627a7a7231582029c9fc0ebcaec5304f7be2a0fe3d3b325d425e791dde571843f86fab076af89564736f6c63430005100032",
  "source": "// SPDX-License-Identifier: MIT\npragma solidity >=0.4.22 <0.9.0;\n\nimport \"./Roles.sol\";\n\ncontract Thirdparty {\n  using Roles for Roles.Role;\n\n  event ThirdpartyAdded(address indexed _account);\n  event ThirdpartyRemoved(address indexed _account);\n\n  Roles.Role private thirdpartysList;\n\n  constructor() public {\n    thirdpartysList.addRole(msg.sender);\n    emit ThirdpartyAdded(msg.sender);\n  }\n\n  ///@dev Modifiers for Thirdparty.\n  modifier onlyThirdparty() {\n    require(isThirdparty(msg.sender), \"\");\n    _;\n  }\n  /*-----------------------------*/\n\n  ///@dev Thirdparty Utility functions.\n  function isThirdparty(address _account) public view returns (bool) {\n    return thirdpartysList.hasRole(_account);\n  }\n\n  function addThirdparty(address _account) public onlyThirdparty {\n    thirdpartysList.addRole(_account);\n    emit ThirdpartyAdded(_account);\n  }\n\n  function removeThirdparty() public {\n    thirdpartysList.removeRole(msg.sender);\n    emit ThirdpartyRemoved(msg.sender);\n  }\n  /*-----------------------------*/\n\n}\n",
  "sourcePath": "/Users/sumyat/Documents/GitHub/SupplyChain/contracts/adminRoles/Thirdparty.sol",
  "compiler": {
    "name": "solc",
    "version": "0.5.16+commit.9c3226ce.Emscripten.clang"
  },
  "schemaVersion": "3.4.9",
  "updatedAt": "2022-09-15T11:39:37.992Z",
  "devdoc": {
    "methods": {
      "isThirdparty(address)": {
        "details": "Thirdparty Utility functions."
      }
    }
  },
  "userdoc": {
    "methods": {}
  }
}