{
  "contractName": "Delivery",
  "abi": [
    {
      "inputs": [],
      "stateMutability": "nonpayable",
      "type": "constructor"
    },
    {
      "anonymous": false,
      "inputs": [
        {
          "indexed": true,
          "internalType": "address",
          "name": "_account",
          "type": "address"
        }
      ],
      "name": "DeliveryAdded",
      "type": "event"
    },
    {
      "anonymous": false,
      "inputs": [
        {
          "indexed": true,
          "internalType": "address",
          "name": "_account",
          "type": "address"
        }
      ],
      "name": "DeliveryRemoved",
      "type": "event"
    },
    {
      "inputs": [
        {
          "internalType": "address",
          "name": "_account",
          "type": "address"
        }
      ],
      "name": "isDelivery",
      "outputs": [
        {
          "internalType": "bool",
          "name": "",
          "type": "bool"
        }
      ],
      "stateMutability": "view",
      "type": "function"
    },
    {
      "inputs": [
        {
          "internalType": "address",
          "name": "_account",
          "type": "address"
        }
      ],
      "name": "addDelivery",
      "outputs": [],
      "stateMutability": "nonpayable",
      "type": "function"
    },
    {
      "inputs": [],
      "name": "removeDelivery",
      "outputs": [],
      "stateMutability": "nonpayable",
      "type": "function"
    }
  ],
  "bytecode": "0x608060405234801561001057600080fd5b5061002933600061007160201b61017e1790919060201c565b3373ffffffffffffffffffffffffffffffffffffffff167f7c7d3c0481283aac66b37eb8de2141707e4f9c9e106b19e5088ef166240c406660405160405180910390a26101b3565b600073ffffffffffffffffffffffffffffffffffffffff168173ffffffffffffffffffffffffffffffffffffffff16036100aa57600080fd5b6100ba828261012260201b60201c565b156100c457600080fd5b60018260000160008373ffffffffffffffffffffffffffffffffffffffff1673ffffffffffffffffffffffffffffffffffffffff16815260200190815260200160002060006101000a81548160ff0219169083151502179055505050565b60008073ffffffffffffffffffffffffffffffffffffffff168273ffffffffffffffffffffffffffffffffffffffff160361015c57600080fd5b8260000160008373ffffffffffffffffffffffffffffffffffffffff1673ffffffffffffffffffffffffffffffffffffffff16815260200190815260200160002060009054906101000a900460ff16905092915050565b610460806101c26000396000f3fe608060405234801561001057600080fd5b50600436106100415760003560e01c8063078bbf201461004657806310bf3071146100625780637bb7916a1461006c575b600080fd5b610060600480360381019061005b91906103c7565b61009c565b005b61006a610108565b005b610086600480360381019061008191906103c7565b610161565b604051610093919061040f565b60405180910390f35b6100a533610161565b6100ae57600080fd5b6100c281600061017e90919063ffffffff16565b8073ffffffffffffffffffffffffffffffffffffffff167f7c7d3c0481283aac66b37eb8de2141707e4f9c9e106b19e5088ef166240c406660405160405180910390a250565b61011c33600061022990919063ffffffff16565b3373ffffffffffffffffffffffffffffffffffffffff167f4a05cf4e528c1f96beb8d7f59dbc17bfe48935baaef1fa0126b81e1ddaafec3060405160405180910390a2565b60006101778260006102d390919063ffffffff16565b9050919050565b600073ffffffffffffffffffffffffffffffffffffffff168173ffffffffffffffffffffffffffffffffffffffff16036101b757600080fd5b6101c182826102d3565b156101cb57600080fd5b60018260000160008373ffffffffffffffffffffffffffffffffffffffff1673ffffffffffffffffffffffffffffffffffffffff16815260200190815260200160002060006101000a81548160ff0219169083151502179055505050565b600073ffffffffffffffffffffffffffffffffffffffff168173ffffffffffffffffffffffffffffffffffffffff160361026257600080fd5b61026c82826102d3565b61027557600080fd5b60008260000160008373ffffffffffffffffffffffffffffffffffffffff1673ffffffffffffffffffffffffffffffffffffffff16815260200190815260200160002060006101000a81548160ff0219169083151502179055505050565b60008073ffffffffffffffffffffffffffffffffffffffff168273ffffffffffffffffffffffffffffffffffffffff160361030d57600080fd5b8260000160008373ffffffffffffffffffffffffffffffffffffffff1673ffffffffffffffffffffffffffffffffffffffff16815260200190815260200160002060009054906101000a900460ff16905092915050565b600080fd5b600073ffffffffffffffffffffffffffffffffffffffff82169050919050565b600061039482610369565b9050919050565b6103a481610389565b81146103af57600080fd5b50565b6000813590506103c18161039b565b92915050565b6000602082840312156103dd576103dc610364565b5b60006103eb848285016103b2565b91505092915050565b60008115159050919050565b610409816103f4565b82525050565b60006020820190506104246000830184610400565b9291505056fea264697066735822122086cc2ec0def8b0180820d0fc1463ce18ef5a97a89e4fa93ef877809fcf26835e64736f6c63430008100033",
  "immutableReferences": {},
  "source": "// SPDX-License-Identifier: MIT\npragma solidity >=0.4.22 <0.9.0;\n\nimport \"./Roles.sol\";\n\ncontract Delivery {\n  using Roles for Roles.Role;\n\n  event DeliveryAdded(address indexed _account);\n  event DeliveryRemoved(address indexed _account);\n\n  Roles.Role private deliveryList;\n\n  constructor() public {\n    deliveryList.addRole(msg.sender);\n    emit DeliveryAdded(msg.sender);\n  }\n\n  ///@dev Modifiers for Delivery.\n  modifier onlyDelivery() {\n    require(isDelivery(msg.sender));\n    _;\n  }\n  /*-----------------------------*/\n\n  ///@dev Delivery Utility functions.\n  function isDelivery(address _account) public view returns (bool) {\n    return deliveryList.hasRole(_account);\n  }\n\n  function addDelivery(address _account) public onlyDelivery {\n    deliveryList.addRole(_account);\n    emit DeliveryAdded(_account);\n  }\n\n  function removeDelivery() public {\n    deliveryList.removeRole(msg.sender);\n    emit DeliveryRemoved(msg.sender);\n  }\n  /*-----------------------------*/\n\n}\n",
  "sourcePath": "/Users/sumyat/Documents/GitHub/eth-supplychain-dapp/contracts/adminRoles/Delivery.sol",
  "compiler": {
    "name": "solc",
    "version": "0.8.16+commit.07a7930e.Emscripten.clang"
  },
  "schemaVersion": "3.4.9",
  "updatedAt": "2022-08-30T15:19:37.833Z",
  "devdoc": {
    "kind": "dev",
    "methods": {
      "isDelivery(address)": {
        "details": "Delivery Utility functions."
      }
    },
    "version": 1
  },
  "userdoc": {
    "kind": "user",
    "methods": {},
    "version": 1
  }
}