{
  "contractName": "Manufacturer",
  "abi": [
    {
      "inputs": [],
      "stateMutability": "nonpayable",
      "type": "constructor"
    },
    {
      "anonymous": false,
      "inputs": [
        {
          "indexed": true,
          "internalType": "address",
          "name": "_account",
          "type": "address"
        }
      ],
      "name": "ManufacturerAdded",
      "type": "event"
    },
    {
      "anonymous": false,
      "inputs": [
        {
          "indexed": true,
          "internalType": "address",
          "name": "_account",
          "type": "address"
        }
      ],
      "name": "ManufacturerRemoved",
      "type": "event"
    },
    {
      "inputs": [
        {
          "internalType": "address",
          "name": "_account",
          "type": "address"
        }
      ],
      "name": "isManufacturer",
      "outputs": [
        {
          "internalType": "bool",
          "name": "",
          "type": "bool"
        }
      ],
      "stateMutability": "view",
      "type": "function"
    },
    {
      "inputs": [
        {
          "internalType": "address",
          "name": "_account",
          "type": "address"
        }
      ],
      "name": "addManufacturer",
      "outputs": [],
      "stateMutability": "nonpayable",
      "type": "function"
    },
    {
      "inputs": [],
      "name": "removeManufacturer",
      "outputs": [],
      "stateMutability": "nonpayable",
      "type": "function"
    }
  ],
  "bytecode": "0x608060405234801561001057600080fd5b5061002933600061007160201b61016c1790919060201c565b3373ffffffffffffffffffffffffffffffffffffffff167f561138658ca49a8540dc70dcfe64c9026c1c5b9344642242dd6562970f9c127860405160405180910390a26101b3565b600073ffffffffffffffffffffffffffffffffffffffff168173ffffffffffffffffffffffffffffffffffffffff16036100aa57600080fd5b6100ba828261012260201b60201c565b156100c457600080fd5b60018260000160008373ffffffffffffffffffffffffffffffffffffffff1673ffffffffffffffffffffffffffffffffffffffff16815260200190815260200160002060006101000a81548160ff0219169083151502179055505050565b60008073ffffffffffffffffffffffffffffffffffffffff168273ffffffffffffffffffffffffffffffffffffffff160361015c57600080fd5b8260000160008373ffffffffffffffffffffffffffffffffffffffff1673ffffffffffffffffffffffffffffffffffffffff16815260200190815260200160002060009054906101000a900460ff16905092915050565b61044e806101c26000396000f3fe608060405234801561001057600080fd5b50600436106100415760003560e01c806317d4a491146100465780635f8a5afa14610076578063f89620e114610092575b600080fd5b610060600480360381019061005b91906103b5565b61009c565b60405161006d91906103fd565b60405180910390f35b610090600480360381019061008b91906103b5565b6100b9565b005b61009a610113565b005b60006100b282600061021790919063ffffffff16565b9050919050565b6100cd81600061016c90919063ffffffff16565b8073ffffffffffffffffffffffffffffffffffffffff167f561138658ca49a8540dc70dcfe64c9026c1c5b9344642242dd6562970f9c127860405160405180910390a250565b6101273360006102a890919063ffffffff16565b3373ffffffffffffffffffffffffffffffffffffffff167f2fed5abf6a80d6dfe30b4895481b2fc5d7dce5f8f7b931832f4a2947d5040c7f60405160405180910390a2565b600073ffffffffffffffffffffffffffffffffffffffff168173ffffffffffffffffffffffffffffffffffffffff16036101a557600080fd5b6101af8282610217565b156101b957600080fd5b60018260000160008373ffffffffffffffffffffffffffffffffffffffff1673ffffffffffffffffffffffffffffffffffffffff16815260200190815260200160002060006101000a81548160ff0219169083151502179055505050565b60008073ffffffffffffffffffffffffffffffffffffffff168273ffffffffffffffffffffffffffffffffffffffff160361025157600080fd5b8260000160008373ffffffffffffffffffffffffffffffffffffffff1673ffffffffffffffffffffffffffffffffffffffff16815260200190815260200160002060009054906101000a900460ff16905092915050565b600073ffffffffffffffffffffffffffffffffffffffff168173ffffffffffffffffffffffffffffffffffffffff16036102e157600080fd5b6102eb8282610217565b6102f457600080fd5b60008260000160008373ffffffffffffffffffffffffffffffffffffffff1673ffffffffffffffffffffffffffffffffffffffff16815260200190815260200160002060006101000a81548160ff0219169083151502179055505050565b600080fd5b600073ffffffffffffffffffffffffffffffffffffffff82169050919050565b600061038282610357565b9050919050565b61039281610377565b811461039d57600080fd5b50565b6000813590506103af81610389565b92915050565b6000602082840312156103cb576103ca610352565b5b60006103d9848285016103a0565b91505092915050565b60008115159050919050565b6103f7816103e2565b82525050565b600060208201905061041260008301846103ee565b9291505056fea2646970667358221220d7b4eccfb13b962c62acc37e901b948c823a013bae0b3ceda19506708a1528b664736f6c63430008100033",
  "immutableReferences": {},
  "source": "// SPDX-License-Identifier: MIT\npragma solidity >=0.4.22 <0.9.0;\n\nimport \"./Roles.sol\";\n\ncontract Manufacturer {\n  using Roles for Roles.Role;\n\n  event ManufacturerAdded(address indexed _account);\n  event ManufacturerRemoved(address indexed _account);\n\n  Roles.Role  manufacturersList;\n\n  constructor() public {\n    manufacturersList.addRole(msg.sender);\n    emit ManufacturerAdded(msg.sender);\n  }\n\n  ///@dev Modifiers for Manufacturer.\n  modifier onlyManufacturer() {\n    require(isManufacturer(msg.sender));\n    _;\n  }\n  /*-----------------------------*/\n\n  ///@dev Manufacturer Utility functions.\n  function isManufacturer(address _account) public view returns (bool) {\n    return manufacturersList.hasRole(_account);\n  }\n\n  function addManufacturer(address _account ) public {\n    manufacturersList.addRole(_account);\n    emit ManufacturerAdded(_account);\n  }\n\n  function removeManufacturer() public {\n    manufacturersList.removeRole(msg.sender);\n    emit ManufacturerRemoved(msg.sender);\n  }\n  /*-----------------------------*/\n\n}\n",
  "sourcePath": "/Users/sumyat/Documents/GitHub/eth-supplychain-dapp/contracts/adminRoles/Manufacturer.sol",
  "compiler": {
    "name": "solc",
    "version": "0.8.16+commit.07a7930e.Emscripten.clang"
  },
  "schemaVersion": "3.4.9",
  "updatedAt": "2022-08-30T15:19:37.834Z",
  "devdoc": {
    "kind": "dev",
    "methods": {
      "isManufacturer(address)": {
        "details": "Manufacturer Utility functions."
      }
    },
    "version": 1
  },
  "userdoc": {
    "kind": "user",
    "methods": {},
    "version": 1
  }
}