{
  "contractName": "SupplyChain",
  "abi": [
    {
      "inputs": [],
      "stateMutability": "payable",
      "type": "constructor"
    },
    {
      "anonymous": false,
      "inputs": [
        {
          "indexed": false,
          "internalType": "uint256",
          "name": "uid",
          "type": "uint256"
        }
      ],
      "name": "ProductManufacture",
      "type": "event"
    },
    {
      "anonymous": false,
      "inputs": [
        {
          "indexed": true,
          "internalType": "address",
          "name": "_account",
          "type": "address"
        }
      ],
      "name": "ManufacturerAdded",
      "type": "event"
    },
    {
      "anonymous": false,
      "inputs": [
        {
          "indexed": false,
          "internalType": "uint256",
          "name": "uid",
          "type": "uint256"
        }
      ],
      "name": "PurchasedByCustomer",
      "type": "event"
    },
    {
      "anonymous": false,
      "inputs": [
        {
          "indexed": false,
          "internalType": "uint256",
          "name": "uid",
          "type": "uint256"
        }
      ],
      "name": "PurchasedByThirdParty",
      "type": "event"
    },
    {
      "anonymous": false,
      "inputs": [
        {
          "indexed": false,
          "internalType": "uint256",
          "name": "uid",
          "type": "uint256"
        }
      ],
      "name": "ReceivedByCustomer",
      "type": "event"
    },
    {
      "anonymous": false,
      "inputs": [
        {
          "indexed": false,
          "internalType": "uint256",
          "name": "uid",
          "type": "uint256"
        }
      ],
      "name": "ReceivedByDelivery",
      "type": "event"
    },
    {
      "anonymous": false,
      "inputs": [
        {
          "indexed": false,
          "internalType": "uint256",
          "name": "uid",
          "type": "uint256"
        }
      ],
      "name": "ReceivedByThirdParty",
      "type": "event"
    },
    {
      "anonymous": false,
      "inputs": [
        {
          "indexed": false,
          "internalType": "uint256",
          "name": "uid",
          "type": "uint256"
        }
      ],
      "name": "ShippedByDelivery",
      "type": "event"
    },
    {
      "anonymous": false,
      "inputs": [
        {
          "indexed": false,
          "internalType": "uint256",
          "name": "uid",
          "type": "uint256"
        }
      ],
      "name": "ShippedByManufacturer",
      "type": "event"
    },
    {
      "anonymous": false,
      "inputs": [
        {
          "indexed": false,
          "internalType": "uint256",
          "name": "uid",
          "type": "uint256"
        }
      ],
      "name": "ShippedByThirdParty",
      "type": "event"
    },
    {
      "inputs": [],
      "name": "uid",
      "outputs": [
        {
          "internalType": "uint256",
          "name": "",
          "type": "uint256"
        }
      ],
      "stateMutability": "view",
      "type": "function"
    },
    {
      "inputs": [
        {
          "internalType": "address",
          "name": "_account",
          "type": "address"
        }
      ],
      "name": "hasManufacturerAdmin",
      "outputs": [
        {
          "internalType": "bool",
          "name": "",
          "type": "bool"
        }
      ],
      "stateMutability": "view",
      "type": "function"
    },
    {
      "inputs": [
        {
          "internalType": "address",
          "name": "_account",
          "type": "address"
        }
      ],
      "name": "addManufacturerAdmin",
      "outputs": [],
      "stateMutability": "nonpayable",
      "type": "function"
    },
    {
      "inputs": [
        {
          "internalType": "address",
          "name": "_account",
          "type": "address"
        }
      ],
      "name": "hasThirdPartyAdmin",
      "outputs": [
        {
          "internalType": "bool",
          "name": "",
          "type": "bool"
        }
      ],
      "stateMutability": "view",
      "type": "function"
    },
    {
      "inputs": [
        {
          "internalType": "address",
          "name": "_account",
          "type": "address"
        }
      ],
      "name": "addThirdPartyAdmin",
      "outputs": [],
      "stateMutability": "nonpayable",
      "type": "function"
    },
    {
      "inputs": [
        {
          "internalType": "address",
          "name": "_account",
          "type": "address"
        }
      ],
      "name": "hasDeliveryAdmin",
      "outputs": [
        {
          "internalType": "bool",
          "name": "",
          "type": "bool"
        }
      ],
      "stateMutability": "view",
      "type": "function"
    },
    {
      "inputs": [
        {
          "internalType": "address",
          "name": "_account",
          "type": "address"
        }
      ],
      "name": "addDeliveryAdmin",
      "outputs": [],
      "stateMutability": "nonpayable",
      "type": "function"
    },
    {
      "inputs": [
        {
          "internalType": "address",
          "name": "_account",
          "type": "address"
        }
      ],
      "name": "hasCustomerAdmin",
      "outputs": [
        {
          "internalType": "bool",
          "name": "",
          "type": "bool"
        }
      ],
      "stateMutability": "view",
      "type": "function"
    },
    {
      "inputs": [
        {
          "internalType": "address",
          "name": "_account",
          "type": "address"
        }
      ],
      "name": "addCustomerAdmin",
      "outputs": [],
      "stateMutability": "nonpayable",
      "type": "function"
    },
    {
      "inputs": [
        {
          "internalType": "string",
          "name": "manufacturerName",
          "type": "string"
        },
        {
          "internalType": "string",
          "name": "manufacturerDetails",
          "type": "string"
        },
        {
          "internalType": "string",
          "name": "manufacturerLongitude",
          "type": "string"
        },
        {
          "internalType": "string",
          "name": "manufacturerLatitude",
          "type": "string"
        },
        {
          "internalType": "string",
          "name": "productName",
          "type": "string"
        },
        {
          "internalType": "uint256",
          "name": "productCode",
          "type": "uint256"
        },
        {
          "internalType": "uint256",
          "name": "productPrice",
          "type": "uint256"
        },
        {
          "internalType": "string",
          "name": "productCategory",
          "type": "string"
        }
      ],
      "name": "manufactureProduct",
      "outputs": [],
      "stateMutability": "nonpayable",
      "type": "function"
    },
    {
      "inputs": [
        {
          "internalType": "uint256",
          "name": "_uid",
          "type": "uint256"
        }
      ],
      "name": "purchaseByThirdParty",
      "outputs": [],
      "stateMutability": "nonpayable",
      "type": "function"
    },
    {
      "inputs": [
        {
          "internalType": "uint256",
          "name": "_uid",
          "type": "uint256"
        }
      ],
      "name": "shipToThirdParty",
      "outputs": [],
      "stateMutability": "nonpayable",
      "type": "function"
    },
    {
      "inputs": [
        {
          "internalType": "uint256",
          "name": "_uid",
          "type": "uint256"
        },
        {
          "internalType": "string",
          "name": "thirdPartyLongitude",
          "type": "string"
        },
        {
          "internalType": "string",
          "name": "thirdPartyLatitude",
          "type": "string"
        }
      ],
      "name": "receiveByThirdParty",
      "outputs": [],
      "stateMutability": "nonpayable",
      "type": "function"
    },
    {
      "inputs": [
        {
          "internalType": "uint256",
          "name": "_uid",
          "type": "uint256"
        }
      ],
      "name": "purchaseByCustomer",
      "outputs": [],
      "stateMutability": "nonpayable",
      "type": "function"
    },
    {
      "inputs": [
        {
          "internalType": "uint256",
          "name": "_uid",
          "type": "uint256"
        }
      ],
      "name": "shipByThirdParty",
      "outputs": [],
      "stateMutability": "nonpayable",
      "type": "function"
    },
    {
      "inputs": [
        {
          "internalType": "uint256",
          "name": "_uid",
          "type": "uint256"
        },
        {
          "internalType": "string",
          "name": "deliveryLongitude",
          "type": "string"
        },
        {
          "internalType": "string",
          "name": "deliveryLatitude",
          "type": "string"
        }
      ],
      "name": "receiveByDelivery",
      "outputs": [],
      "stateMutability": "nonpayable",
      "type": "function"
    },
    {
      "inputs": [
        {
          "internalType": "uint256",
          "name": "_uid",
          "type": "uint256"
        }
      ],
      "name": "shipByDelivery",
      "outputs": [],
      "stateMutability": "nonpayable",
      "type": "function"
    },
    {
      "inputs": [
        {
          "internalType": "uint256",
          "name": "_uid",
          "type": "uint256"
        }
      ],
      "name": "receiveByCustomer",
      "outputs": [],
      "stateMutability": "nonpayable",
      "type": "function"
    },
    {
      "inputs": [
        {
          "internalType": "uint256",
          "name": "_uid",
          "type": "uint256"
        },
        {
          "internalType": "string",
          "name": "_type",
          "type": "string"
        },
        {
          "internalType": "uint256",
          "name": "i",
          "type": "uint256"
        }
      ],
      "name": "fetchItemPart1",
      "outputs": [
        {
          "internalType": "uint256",
          "name": "",
          "type": "uint256"
        },
        {
          "internalType": "uint256",
          "name": "",
          "type": "uint256"
        },
        {
          "internalType": "address",
          "name": "",
          "type": "address"
        },
        {
          "internalType": "address",
          "name": "",
          "type": "address"
        },
        {
          "internalType": "string",
          "name": "",
          "type": "string"
        },
        {
          "internalType": "string",
          "name": "",
          "type": "string"
        },
        {
          "internalType": "string",
          "name": "",
          "type": "string"
        },
        {
          "internalType": "string",
          "name": "",
          "type": "string"
        }
      ],
      "stateMutability": "view",
      "type": "function"
    },
    {
      "inputs": [
        {
          "internalType": "uint256",
          "name": "_uid",
          "type": "uint256"
        },
        {
          "internalType": "string",
          "name": "_type",
          "type": "string"
        },
        {
          "internalType": "uint256",
          "name": "i",
          "type": "uint256"
        }
      ],
      "name": "fetchItemPart2",
      "outputs": [
        {
          "internalType": "uint256",
          "name": "",
          "type": "uint256"
        },
        {
          "internalType": "string",
          "name": "",
          "type": "string"
        },
        {
          "internalType": "uint256",
          "name": "",
          "type": "uint256"
        },
        {
          "internalType": "uint256",
          "name": "",
          "type": "uint256"
        },
        {
          "internalType": "string",
          "name": "",
          "type": "string"
        },
        {
          "internalType": "enum Structure.State",
          "name": "",
          "type": "uint8"
        },
        {
          "internalType": "address",
          "name": "",
          "type": "address"
        },
        {
          "internalType": "string",
          "name": "",
          "type": "string"
        }
      ],
      "stateMutability": "view",
      "type": "function"
    },
    {
      "inputs": [
        {
          "internalType": "uint256",
          "name": "_uid",
          "type": "uint256"
        },
        {
          "internalType": "string",
          "name": "_type",
          "type": "string"
        },
        {
          "internalType": "uint256",
          "name": "i",
          "type": "uint256"
        }
      ],
      "name": "fetchItemPart3",
      "outputs": [
        {
          "internalType": "string",
          "name": "",
          "type": "string"
        },
        {
          "internalType": "address",
          "name": "",
          "type": "address"
        },
        {
          "internalType": "string",
          "name": "",
          "type": "string"
        },
        {
          "internalType": "string",
          "name": "",
          "type": "string"
        },
        {
          "internalType": "address",
          "name": "",
          "type": "address"
        },
        {
          "internalType": "string",
          "name": "",
          "type": "string"
        }
      ],
      "stateMutability": "view",
      "type": "function"
    },
    {
      "inputs": [],
      "name": "fetchItemCount",
      "outputs": [
        {
          "internalType": "uint256",
          "name": "",
          "type": "uint256"
        }
      ],
      "stateMutability": "view",
      "type": "function"
    },
    {
      "inputs": [
        {
          "internalType": "uint256",
          "name": "_uid",
          "type": "uint256"
        }
      ],
      "name": "fetchItemHistoryLength",
      "outputs": [
        {
          "internalType": "uint256",
          "name": "",
          "type": "uint256"
        }
      ],
      "stateMutability": "view",
      "type": "function"
    },
    {
      "inputs": [
        {
          "internalType": "uint256",
          "name": "_uid",
          "type": "uint256"
        }
      ],
      "name": "fetchItemState",
      "outputs": [
        {
          "internalType": "enum Structure.State",
          "name": "",
          "type": "uint8"
        }
      ],
      "stateMutability": "view",
      "type": "function"
    },
    {
      "inputs": [
        {
          "internalType": "string",
          "name": "tran",
          "type": "string"
        }
      ],
      "name": "setTransactionHashOnManufacture",
      "outputs": [],
      "stateMutability": "nonpayable",
      "type": "function"
    },
    {
      "inputs": [
        {
          "internalType": "uint256",
          "name": "_uid",
          "type": "uint256"
        },
        {
          "internalType": "string",
          "name": "tran",
          "type": "string"
        }
      ],
      "name": "setTransactionHash",
      "outputs": [],
      "stateMutability": "nonpayable",
      "type": "function"
    }
  ],
  "bytecode": "0x608060405233600260006101000a81548173ffffffffffffffffffffffffffffffffffffffff021916908373ffffffffffffffffffffffffffffffffffffffff16021790555060018081905550600160008190555061597e806100636000396000f3fe608060405234801561001057600080fd5b506004361061018d5760003560e01c8063786ea161116100de578063d44bebcc11610097578063ee707c1e11610071578063ee707c1e146104c1578063f16791b3146104dd578063f4121b67146104fb578063f514ce36146105175761018d565b8063d44bebcc14610445578063e2f1fe1414610475578063e55128ea146104a55761018d565b8063786ea161146103705780638290f8591461038c5780638eee90ea146103a857806398c95889146103c4578063b843bdee146103f9578063cd2885e0146104155761018d565b80635212e5101161014b5780636cf07e24116101255780636cf07e24146102e55780636f1fe8d7146103015780637217eb2e1461033857806372df397e146103545761018d565b80635212e510146102625780636000ada11461027e578063658db497146102ae5761018d565b80623375b714610192578063024edf9a146101ae5780630a036e25146101de5780633334529e146101fa578063405ba7ef14610216578063453dd4af14610246575b600080fd5b6101ac60048036038101906101a79190614d7f565b610535565b005b6101c860048036038101906101c39190614f3b565b610cfb565b6040516101d59190614f83565b60405180910390f35b6101f860048036038101906101f39190614f9e565b610d8c565b005b610214600480360381019061020f9190614fcb565b61125f565b005b610230600480360381019061022b9190614f9e565b61182c565b60405161023d9190615065565b60405180910390f35b610260600480360381019061025b9190614f3b565b61184f565b005b61027c60048036038101906102779190614f3b565b6118f9565b005b61029860048036038101906102939190614f3b565b6119a3565b6040516102a59190614f83565b60405180910390f35b6102c860048036038101906102c39190615080565b611a34565b6040516102dc98979695949392919061517d565b60405180910390f35b6102ff60048036038101906102fa9190614f9e565b611e1e565b005b61031b60048036038101906103169190615080565b6123b7565b60405161032f98979695949392919061528e565b60405180910390f35b610352600480360381019061034d9190614f9e565b61270b565b005b61036e60048036038101906103699190614f9e565b612c16565b005b61038a60048036038101906103859190615321565b613191565b005b6103a660048036038101906103a19190614f3b565b613207565b005b6103c260048036038101906103bd9190614fcb565b6132b1565b005b6103de60048036038101906103d99190615080565b613864565b6040516103f09695949392919061537d565b60405180910390f35b610413600480360381019061040e9190614f9e565b613c3b565b005b61042f600480360381019061042a9190614f3b565b614149565b60405161043c9190614f83565b60405180910390f35b61045f600480360381019061045a9190614f3b565b6141da565b60405161046c9190614f83565b60405180910390f35b61048f600480360381019061048a9190614f9e565b61426b565b60405161049c91906153fa565b60405180910390f35b6104bf60048036038101906104ba9190615415565b614298565b005b6104db60048036038101906104d69190614f9e565b614323565b005b6104e5614866565b6040516104f29190615065565b60405180910390f35b61051560048036038101906105109190614f3b565b61486f565b005b61051f614919565b60405161052c9190615065565b60405180910390f35b61053e336119a3565b61054757600080fd5b600080549050610555614a64565b600154816020018181525050818160000181815250508981608001516020018190525088816080015160400181905250878160800151606001819052508681608001516080018190525042816080015160a001818152505033816040019073ffffffffffffffffffffffffffffffffffffffff16908173ffffffffffffffffffffffffffffffffffffffff16815250503381608001516000019073ffffffffffffffffffffffffffffffffffffffff16908173ffffffffffffffffffffffffffffffffffffffff168152505061062a8161491f565b60008160600190600881111561064357610642615217565b5b9081600881111561065757610656615217565b5b815250506106688187878787614a27565b8060036000848152602001908152602001600020600082015181600001556020820151816001015560408201518160020160006101000a81548173ffffffffffffffffffffffffffffffffffffffff021916908373ffffffffffffffffffffffffffffffffffffffff16021790555060608201518160020160146101000a81548160ff0219169083600881111561070257610701615217565b5b021790555060808201518160030160008201518160000160006101000a81548173ffffffffffffffffffffffffffffffffffffffff021916908373ffffffffffffffffffffffffffffffffffffffff160217905550602082015181600101908161076c919061566a565b506040820151816002019081610782919061566a565b506060820151816003019081610798919061566a565b5060808201518160040190816107ae919061566a565b5060a08201518160050155505060a08201518160090160008201518160000160006101000a81548173ffffffffffffffffffffffffffffffffffffffff021916908373ffffffffffffffffffffffffffffffffffffffff1602179055506020820151816001019081610820919061566a565b506040820151816002019081610836919061566a565b50505060c082015181600c016000820151816000019081610857919061566a565b5060208201518160010155604082015181600201556060820151816003019081610881919061566a565b50505060e08201518160100160008201518160000160006101000a81548173ffffffffffffffffffffffffffffffffffffffff021916908373ffffffffffffffffffffffffffffffffffffffff16021790555060208201518160010190816108e9919061566a565b5060408201518160020190816108ff919061566a565b5050506101008201518160130160006101000a81548173ffffffffffffffffffffffffffffffffffffffff021916908373ffffffffffffffffffffffffffffffffffffffff160217905550610120820151816014019081610960919061566a565b5090505060046000838152602001908152602001600020600001819080600181540180825580915050600190039060005260206000209060150201600090919091909150600082015181600001556020820151816001015560408201518160020160006101000a81548173ffffffffffffffffffffffffffffffffffffffff021916908373ffffffffffffffffffffffffffffffffffffffff16021790555060608201518160020160146101000a81548160ff02191690836008811115610a2a57610a29615217565b5b021790555060808201518160030160008201518160000160006101000a81548173ffffffffffffffffffffffffffffffffffffffff021916908373ffffffffffffffffffffffffffffffffffffffff1602179055506020820151816001019081610a94919061566a565b506040820151816002019081610aaa919061566a565b506060820151816003019081610ac0919061566a565b506080820151816004019081610ad6919061566a565b5060a08201518160050155505060a08201518160090160008201518160000160006101000a81548173ffffffffffffffffffffffffffffffffffffffff021916908373ffffffffffffffffffffffffffffffffffffffff1602179055506020820151816001019081610b48919061566a565b506040820151816002019081610b5e919061566a565b50505060c082015181600c016000820151816000019081610b7f919061566a565b5060208201518160010155604082015181600201556060820151816003019081610ba9919061566a565b50505060e08201518160100160008201518160000160006101000a81548173ffffffffffffffffffffffffffffffffffffffff021916908373ffffffffffffffffffffffffffffffffffffffff1602179055506020820151816001019081610c11919061566a565b506040820151816002019081610c27919061566a565b5050506101008201518160130160006101000a81548173ffffffffffffffffffffffffffffffffffffffff021916908373ffffffffffffffffffffffffffffffffffffffff160217905550610120820151816014019081610c88919061566a565b50505060016000815480929190610c9e9061576b565b91905055506001600054610cb291906157b3565b6000819055507fd29d8a68ca7c8c74be5579719d445aabfe230ed6e6a83aff475a663500eb760982604051610ce79190615065565b60405180910390a150505050505050505050565b60008073ffffffffffffffffffffffffffffffffffffffff168273ffffffffffffffffffffffffffffffffffffffff1603610d3557600080fd5b600560008373ffffffffffffffffffffffffffffffffffffffff1673ffffffffffffffffffffffffffffffffffffffff16815260200190815260200160002060000160039054906101000a900460ff169050919050565b6003600082815260200190815260200160002060030160000160009054906101000a900473ffffffffffffffffffffffffffffffffffffffff168073ffffffffffffffffffffffffffffffffffffffff163373ffffffffffffffffffffffffffffffffffffffff1614610dfe57600080fd5b610e07336119a3565b610e1057600080fd5b60026003600084815260200190815260200160002060020160146101000a81548160ff02191690836008811115610e4a57610e49615217565b5b02179055506004600083815260200190815260200160002060000160036000848152602001908152602001600020908060018154018082558091505060019003906000526020600020906015020160009091909190915060008201548160000155600182015481600101556002820160009054906101000a900473ffffffffffffffffffffffffffffffffffffffff168160020160006101000a81548173ffffffffffffffffffffffffffffffffffffffff021916908373ffffffffffffffffffffffffffffffffffffffff1602179055506002820160149054906101000a900460ff168160020160146101000a81548160ff02191690836008811115610f5457610f53615217565b5b021790555060038201816003016000820160009054906101000a900473ffffffffffffffffffffffffffffffffffffffff168160000160006101000a81548173ffffffffffffffffffffffffffffffffffffffff021916908373ffffffffffffffffffffffffffffffffffffffff16021790555060018201816001019081610fdc91906157fd565b5060028201816002019081610ff191906157fd565b506003820181600301908161100691906157fd565b506004820181600401908161101b91906157fd565b5060058201548160050155505060098201816009016000820160009054906101000a900473ffffffffffffffffffffffffffffffffffffffff168160000160006101000a81548173ffffffffffffffffffffffffffffffffffffffff021916908373ffffffffffffffffffffffffffffffffffffffff160217905550600182018160010190816110ab91906157fd565b50600282018160020190816110c091906157fd565b505050600c820181600c01600082018160000190816110df91906157fd565b5060018201548160010155600282015481600201556003820181600301908161110891906157fd565b50505060108201816010016000820160009054906101000a900473ffffffffffffffffffffffffffffffffffffffff168160000160006101000a81548173ffffffffffffffffffffffffffffffffffffffff021916908373ffffffffffffffffffffffffffffffffffffffff1602179055506001820181600101908161118e91906157fd565b50600282018160020190816111a391906157fd565b5050506013820160009054906101000a900473ffffffffffffffffffffffffffffffffffffffff168160130160006101000a81548173ffffffffffffffffffffffffffffffffffffffff021916908373ffffffffffffffffffffffffffffffffffffffff1602179055506014820181601401908161122191906157fd565b5050507f25727bef8a186dd95a062151451f2d651551b53124c18208d7653b1217ae31ba826040516112539190615065565b60405180910390a15050565b826002600881111561127457611273615217565b5b6003600083815260200190815260200160002060020160149054906101000a900460ff1660088111156112aa576112a9615217565b5b146112b457600080fd5b6003600085815260200190815260200160002060090160000160009054906101000a900473ffffffffffffffffffffffffffffffffffffffff168073ffffffffffffffffffffffffffffffffffffffff163373ffffffffffffffffffffffffffffffffffffffff161461132657600080fd5b61132f33614149565b61133857600080fd5b336003600087815260200190815260200160002060020160006101000a81548173ffffffffffffffffffffffffffffffffffffffff021916908373ffffffffffffffffffffffffffffffffffffffff160217905550836003600087815260200190815260200160002060090160010190816113b3919061566a565b50826003600087815260200190815260200160002060090160020190816113da919061566a565b50600380600087815260200190815260200160002060020160146101000a81548160ff0219169083600881111561141457611413615217565b5b02179055506004600086815260200190815260200160002060000160036000878152602001908152602001600020908060018154018082558091505060019003906000526020600020906015020160009091909190915060008201548160000155600182015481600101556002820160009054906101000a900473ffffffffffffffffffffffffffffffffffffffff168160020160006101000a81548173ffffffffffffffffffffffffffffffffffffffff021916908373ffffffffffffffffffffffffffffffffffffffff1602179055506002820160149054906101000a900460ff168160020160146101000a81548160ff0219169083600881111561151e5761151d615217565b5b021790555060038201816003016000820160009054906101000a900473ffffffffffffffffffffffffffffffffffffffff168160000160006101000a81548173ffffffffffffffffffffffffffffffffffffffff021916908373ffffffffffffffffffffffffffffffffffffffff160217905550600182018160010190816115a691906157fd565b50600282018160020190816115bb91906157fd565b50600382018160030190816115d091906157fd565b50600482018160040190816115e591906157fd565b5060058201548160050155505060098201816009016000820160009054906101000a900473ffffffffffffffffffffffffffffffffffffffff168160000160006101000a81548173ffffffffffffffffffffffffffffffffffffffff021916908373ffffffffffffffffffffffffffffffffffffffff1602179055506001820181600101908161167591906157fd565b506002820181600201908161168a91906157fd565b505050600c820181600c01600082018160000190816116a991906157fd565b506001820154816001015560028201548160020155600382018160030190816116d291906157fd565b50505060108201816010016000820160009054906101000a900473ffffffffffffffffffffffffffffffffffffffff168160000160006101000a81548173ffffffffffffffffffffffffffffffffffffffff021916908373ffffffffffffffffffffffffffffffffffffffff1602179055506001820181600101908161175891906157fd565b506002820181600201908161176d91906157fd565b5050506013820160009054906101000a900473ffffffffffffffffffffffffffffffffffffffff168160130160006101000a81548173ffffffffffffffffffffffffffffffffffffffff021916908373ffffffffffffffffffffffffffffffffffffffff160217905550601482018160140190816117eb91906157fd565b5050507fa22971300ba7d9ca2113cf57c3238cde86a32cfba0c31a13ad86a23bde3facf28560405161181d9190615065565b60405180910390a15050505050565b600060046000838152602001908152602001600020600001805490509050919050565b600073ffffffffffffffffffffffffffffffffffffffff168173ffffffffffffffffffffffffffffffffffffffff160361188857600080fd5b611891816141da565b1561189b57600080fd5b6001600560008373ffffffffffffffffffffffffffffffffffffffff1673ffffffffffffffffffffffffffffffffffffffff16815260200190815260200160002060000160036101000a81548160ff02191690831515021790555050565b600073ffffffffffffffffffffffffffffffffffffffff168173ffffffffffffffffffffffffffffffffffffffff160361193257600080fd5b61193b81614149565b1561194557600080fd5b6001600560008373ffffffffffffffffffffffffffffffffffffffff1673ffffffffffffffffffffffffffffffffffffffff16815260200190815260200160002060000160016101000a81548160ff02191690831515021790555050565b60008073ffffffffffffffffffffffffffffffffffffffff168273ffffffffffffffffffffffffffffffffffffffff16036119dd57600080fd5b600560008373ffffffffffffffffffffffffffffffffffffffff1673ffffffffffffffffffffffffffffffffffffffff16815260200190815260200160002060000160009054906101000a900460ff169050919050565b6000806000806060806060806000600360008d81526020019081526020016000206000015403611a6357600080fd5b6000600360008d815260200190815260200160002090506040518060400160405280600781526020017f70726f6475637400000000000000000000000000000000000000000000000000815250805190602001208b8051906020012003611ada57600360008d815260200190815260200160002090505b6040518060400160405280600781526020017f686973746f727900000000000000000000000000000000000000000000000000815250805190602001208b8051906020012003611b5d57600460008d81526020019081526020016000206000018a81548110611b4c57611b4b6158e5565b5b906000526020600020906015020190505b806000015481600101548260020160009054906101000a900473ffffffffffffffffffffffffffffffffffffffff168360030160000160009054906101000a900473ffffffffffffffffffffffffffffffffffffffff1684600301600101856003016002018660030160030187600301600401838054611bdc9061548d565b80601f0160208091040260200160405190810160405280929190818152602001828054611c089061548d565b8015611c555780601f10611c2a57610100808354040283529160200191611c55565b820191906000526020600020905b815481529060010190602001808311611c3857829003601f168201915b50505050509350828054611c689061548d565b80601f0160208091040260200160405190810160405280929190818152602001828054611c949061548d565b8015611ce15780601f10611cb657610100808354040283529160200191611ce1565b820191906000526020600020905b815481529060010190602001808311611cc457829003601f168201915b50505050509250818054611cf49061548d565b80601f0160208091040260200160405190810160405280929190818152602001828054611d209061548d565b8015611d6d5780601f10611d4257610100808354040283529160200191611d6d565b820191906000526020600020905b815481529060010190602001808311611d5057829003601f168201915b50505050509150808054611d809061548d565b80601f0160208091040260200160405190810160405280929190818152602001828054611dac9061548d565b8015611df95780601f10611dce57610100808354040283529160200191611df9565b820191906000526020600020905b815481529060010190602001808311611ddc57829003601f168201915b5050505050905098509850985098509850985098509850509397509397509397509397565b8060066008811115611e3357611e32615217565b5b6003600083815260200190815260200160002060020160149054906101000a900460ff166008811115611e6957611e68615217565b5b14611e7357600080fd5b6003600083815260200190815260200160002060020160009054906101000a900473ffffffffffffffffffffffffffffffffffffffff168073ffffffffffffffffffffffffffffffffffffffff163373ffffffffffffffffffffffffffffffffffffffff1614611ee257600080fd5b6003600084815260200190815260200160002060100160000160009054906101000a900473ffffffffffffffffffffffffffffffffffffffff168073ffffffffffffffffffffffffffffffffffffffff163373ffffffffffffffffffffffffffffffffffffffff1614611f5457600080fd5b611f5d336141da565b611f6657600080fd5b60076003600086815260200190815260200160002060020160146101000a81548160ff02191690836008811115611fa057611f9f615217565b5b02179055506004600085815260200190815260200160002060000160036000868152602001908152602001600020908060018154018082558091505060019003906000526020600020906015020160009091909190915060008201548160000155600182015481600101556002820160009054906101000a900473ffffffffffffffffffffffffffffffffffffffff168160020160006101000a81548173ffffffffffffffffffffffffffffffffffffffff021916908373ffffffffffffffffffffffffffffffffffffffff1602179055506002820160149054906101000a900460ff168160020160146101000a81548160ff021916908360088111156120aa576120a9615217565b5b021790555060038201816003016000820160009054906101000a900473ffffffffffffffffffffffffffffffffffffffff168160000160006101000a81548173ffffffffffffffffffffffffffffffffffffffff021916908373ffffffffffffffffffffffffffffffffffffffff1602179055506001820181600101908161213291906157fd565b506002820181600201908161214791906157fd565b506003820181600301908161215c91906157fd565b506004820181600401908161217191906157fd565b5060058201548160050155505060098201816009016000820160009054906101000a900473ffffffffffffffffffffffffffffffffffffffff168160000160006101000a81548173ffffffffffffffffffffffffffffffffffffffff021916908373ffffffffffffffffffffffffffffffffffffffff1602179055506001820181600101908161220191906157fd565b506002820181600201908161221691906157fd565b505050600c820181600c016000820181600001908161223591906157fd565b5060018201548160010155600282015481600201556003820181600301908161225e91906157fd565b50505060108201816010016000820160009054906101000a900473ffffffffffffffffffffffffffffffffffffffff168160000160006101000a81548173ffffffffffffffffffffffffffffffffffffffff021916908373ffffffffffffffffffffffffffffffffffffffff160217905550600182018160010190816122e491906157fd565b50600282018160020190816122f991906157fd565b5050506013820160009054906101000a900473ffffffffffffffffffffffffffffffffffffffff168160130160006101000a81548173ffffffffffffffffffffffffffffffffffffffff021916908373ffffffffffffffffffffffffffffffffffffffff1602179055506014820181601401908161237791906157fd565b5050507f9a96442e96ac96ba57e48273f290bf3bb9c6b0b2c86843cc4bf2353119918fdf846040516123a99190615065565b60405180910390a150505050565b60006060600080606060008060606000600360008d815260200190815260200160002060000154036123e857600080fd5b6000600360008d815260200190815260200160002090506040518060400160405280600781526020017f70726f6475637400000000000000000000000000000000000000000000000000815250805190602001208b805190602001200361245f57600360008d815260200190815260200160002090505b6040518060400160405280600781526020017f686973746f727900000000000000000000000000000000000000000000000000815250805190602001208b80519060200120036124e257600460008d81526020019081526020016000206000018a815481106124d1576124d06158e5565b5b906000526020600020906015020190505b806003016005015481600c0160000182600c016001015483600c016002015484600c016003018560020160149054906101000a900460ff168660090160000160009054906101000a900473ffffffffffffffffffffffffffffffffffffffff16876009016001018680546125559061548d565b80601f01602080910402602001604051908101604052809291908181526020018280546125819061548d565b80156125ce5780601f106125a3576101008083540402835291602001916125ce565b820191906000526020600020905b8154815290600101906020018083116125b157829003601f168201915b505050505096508380546125e19061548d565b80601f016020809104026020016040519081016040528092919081815260200182805461260d9061548d565b801561265a5780601f1061262f5761010080835404028352916020019161265a565b820191906000526020600020905b81548152906001019060200180831161263d57829003601f168201915b5050505050935080805461266d9061548d565b80601f01602080910402602001604051908101604052809291908181526020018280546126999061548d565b80156126e65780601f106126bb576101008083540402835291602001916126e6565b820191906000526020600020905b8154815290600101906020018083116126c957829003601f168201915b5050505050905098509850985098509850985098509850509397509397509397509397565b80600360088111156127205761271f615217565b5b6003600083815260200190815260200160002060020160149054906101000a900460ff16600881111561275657612755615217565b5b1461276057600080fd5b61276933610cfb565b61277257600080fd5b336003600084815260200190815260200160002060130160006101000a81548173ffffffffffffffffffffffffffffffffffffffff021916908373ffffffffffffffffffffffffffffffffffffffff16021790555060046003600084815260200190815260200160002060020160146101000a81548160ff0219169083600881111561280157612800615217565b5b02179055506004600083815260200190815260200160002060000160036000848152602001908152602001600020908060018154018082558091505060019003906000526020600020906015020160009091909190915060008201548160000155600182015481600101556002820160009054906101000a900473ffffffffffffffffffffffffffffffffffffffff168160020160006101000a81548173ffffffffffffffffffffffffffffffffffffffff021916908373ffffffffffffffffffffffffffffffffffffffff1602179055506002820160149054906101000a900460ff168160020160146101000a81548160ff0219169083600881111561290b5761290a615217565b5b021790555060038201816003016000820160009054906101000a900473ffffffffffffffffffffffffffffffffffffffff168160000160006101000a81548173ffffffffffffffffffffffffffffffffffffffff021916908373ffffffffffffffffffffffffffffffffffffffff1602179055506001820181600101908161299391906157fd565b50600282018160020190816129a891906157fd565b50600382018160030190816129bd91906157fd565b50600482018160040190816129d291906157fd565b5060058201548160050155505060098201816009016000820160009054906101000a900473ffffffffffffffffffffffffffffffffffffffff168160000160006101000a81548173ffffffffffffffffffffffffffffffffffffffff021916908373ffffffffffffffffffffffffffffffffffffffff16021790555060018201816001019081612a6291906157fd565b5060028201816002019081612a7791906157fd565b505050600c820181600c0160008201816000019081612a9691906157fd565b50600182015481600101556002820154816002015560038201816003019081612abf91906157fd565b50505060108201816010016000820160009054906101000a900473ffffffffffffffffffffffffffffffffffffffff168160000160006101000a81548173ffffffffffffffffffffffffffffffffffffffff021916908373ffffffffffffffffffffffffffffffffffffffff16021790555060018201816001019081612b4591906157fd565b5060028201816002019081612b5a91906157fd565b5050506013820160009054906101000a900473ffffffffffffffffffffffffffffffffffffffff168160130160006101000a81548173ffffffffffffffffffffffffffffffffffffffff021916908373ffffffffffffffffffffffffffffffffffffffff16021790555060148201816014019081612bd891906157fd565b5050507ffd054e59d299873fab61a3c67d86d3a139b75dcd5cd82894d8983fc5e2669c8282604051612c0a9190615065565b60405180910390a15050565b8060076008811115612c2b57612c2a615217565b5b6003600083815260200190815260200160002060020160149054906101000a900460ff166008811115612c6157612c60615217565b5b14612c6b57600080fd5b6003600083815260200190815260200160002060130160009054906101000a900473ffffffffffffffffffffffffffffffffffffffff168073ffffffffffffffffffffffffffffffffffffffff163373ffffffffffffffffffffffffffffffffffffffff1614612cda57600080fd5b612ce333610cfb565b612cec57600080fd5b336003600085815260200190815260200160002060020160006101000a81548173ffffffffffffffffffffffffffffffffffffffff021916908373ffffffffffffffffffffffffffffffffffffffff16021790555060086003600085815260200190815260200160002060020160146101000a81548160ff02191690836008811115612d7b57612d7a615217565b5b02179055506004600084815260200190815260200160002060000160036000858152602001908152602001600020908060018154018082558091505060019003906000526020600020906015020160009091909190915060008201548160000155600182015481600101556002820160009054906101000a900473ffffffffffffffffffffffffffffffffffffffff168160020160006101000a81548173ffffffffffffffffffffffffffffffffffffffff021916908373ffffffffffffffffffffffffffffffffffffffff1602179055506002820160149054906101000a900460ff168160020160146101000a81548160ff02191690836008811115612e8557612e84615217565b5b021790555060038201816003016000820160009054906101000a900473ffffffffffffffffffffffffffffffffffffffff168160000160006101000a81548173ffffffffffffffffffffffffffffffffffffffff021916908373ffffffffffffffffffffffffffffffffffffffff16021790555060018201816001019081612f0d91906157fd565b5060028201816002019081612f2291906157fd565b5060038201816003019081612f3791906157fd565b5060048201816004019081612f4c91906157fd565b5060058201548160050155505060098201816009016000820160009054906101000a900473ffffffffffffffffffffffffffffffffffffffff168160000160006101000a81548173ffffffffffffffffffffffffffffffffffffffff021916908373ffffffffffffffffffffffffffffffffffffffff16021790555060018201816001019081612fdc91906157fd565b5060028201816002019081612ff191906157fd565b505050600c820181600c016000820181600001908161301091906157fd565b5060018201548160010155600282015481600201556003820181600301908161303991906157fd565b50505060108201816010016000820160009054906101000a900473ffffffffffffffffffffffffffffffffffffffff168160000160006101000a81548173ffffffffffffffffffffffffffffffffffffffff021916908373ffffffffffffffffffffffffffffffffffffffff160217905550600182018160010190816130bf91906157fd565b50600282018160020190816130d491906157fd565b5050506013820160009054906101000a900473ffffffffffffffffffffffffffffffffffffffff168160130160006101000a81548173ffffffffffffffffffffffffffffffffffffffff021916908373ffffffffffffffffffffffffffffffffffffffff1602179055506014820181601401908161315291906157fd565b5050507f8a746d5b91a9a334d1abbeee7d031aac6d5c59ea6e982ac06aef4346cce5749e836040516131849190615065565b60405180910390a1505050565b600060046000848152602001908152602001600020600001600160046000868152602001908152602001600020600001805490506131cf9190615914565b815481106131e0576131df6158e5565b5b9060005260206000209060150201905081816014019081613201919061566a565b50505050565b600073ffffffffffffffffffffffffffffffffffffffff168173ffffffffffffffffffffffffffffffffffffffff160361324057600080fd5b613249816119a3565b1561325357600080fd5b6001600560008373ffffffffffffffffffffffffffffffffffffffff1673ffffffffffffffffffffffffffffffffffffffff16815260200190815260200160002060000160006101000a81548160ff02191690831515021790555050565b82600560088111156132c6576132c5615217565b5b6003600083815260200190815260200160002060020160149054906101000a900460ff1660088111156132fc576132fb615217565b5b1461330657600080fd5b61330f336141da565b61331857600080fd5b336003600086815260200190815260200160002060020160006101000a81548173ffffffffffffffffffffffffffffffffffffffff021916908373ffffffffffffffffffffffffffffffffffffffff160217905550336003600086815260200190815260200160002060100160000160006101000a81548173ffffffffffffffffffffffffffffffffffffffff021916908373ffffffffffffffffffffffffffffffffffffffff160217905550826003600086815260200190815260200160002060100160010190816133eb919061566a565b5081600360008681526020019081526020016000206010016002019081613412919061566a565b5060066003600086815260200190815260200160002060020160146101000a81548160ff0219169083600881111561344d5761344c615217565b5b02179055506004600085815260200190815260200160002060000160036000868152602001908152602001600020908060018154018082558091505060019003906000526020600020906015020160009091909190915060008201548160000155600182015481600101556002820160009054906101000a900473ffffffffffffffffffffffffffffffffffffffff168160020160006101000a81548173ffffffffffffffffffffffffffffffffffffffff021916908373ffffffffffffffffffffffffffffffffffffffff1602179055506002820160149054906101000a900460ff168160020160146101000a81548160ff0219169083600881111561355757613556615217565b5b021790555060038201816003016000820160009054906101000a900473ffffffffffffffffffffffffffffffffffffffff168160000160006101000a81548173ffffffffffffffffffffffffffffffffffffffff021916908373ffffffffffffffffffffffffffffffffffffffff160217905550600182018160010190816135df91906157fd565b50600282018160020190816135f491906157fd565b506003820181600301908161360991906157fd565b506004820181600401908161361e91906157fd565b5060058201548160050155505060098201816009016000820160009054906101000a900473ffffffffffffffffffffffffffffffffffffffff168160000160006101000a81548173ffffffffffffffffffffffffffffffffffffffff021916908373ffffffffffffffffffffffffffffffffffffffff160217905550600182018160010190816136ae91906157fd565b50600282018160020190816136c391906157fd565b505050600c820181600c01600082018160000190816136e291906157fd565b5060018201548160010155600282015481600201556003820181600301908161370b91906157fd565b50505060108201816010016000820160009054906101000a900473ffffffffffffffffffffffffffffffffffffffff168160000160006101000a81548173ffffffffffffffffffffffffffffffffffffffff021916908373ffffffffffffffffffffffffffffffffffffffff1602179055506001820181600101908161379191906157fd565b50600282018160020190816137a691906157fd565b5050506013820160009054906101000a900473ffffffffffffffffffffffffffffffffffffffff168160130160006101000a81548173ffffffffffffffffffffffffffffffffffffffff021916908373ffffffffffffffffffffffffffffffffffffffff1602179055506014820181601401908161382491906157fd565b5050507fb6589947d486bf61c31a4e6d2e81d4d2c93e7832fdda27f2492009b4755c29ed846040516138569190615065565b60405180910390a150505050565b60606000606080600060606000600360008b8152602001908152602001600020600001540361389257600080fd5b6000600360008b815260200190815260200160002090506040518060400160405280600781526020017f70726f64756374000000000000000000000000000000000000000000000000008152508051906020012089805190602001200361390957600360008b815260200190815260200160002090505b6040518060400160405280600781526020017f686973746f7279000000000000000000000000000000000000000000000000008152508051906020012089805190602001200361398c57600460008b8152602001908152602001600020600001888154811061397b5761397a6158e5565b5b906000526020600020906015020190505b806009016002018160100160000160009054906101000a900473ffffffffffffffffffffffffffffffffffffffff1682601001600101836010016002018460130160009054906101000a900473ffffffffffffffffffffffffffffffffffffffff16856014018580546139fe9061548d565b80601f0160208091040260200160405190810160405280929190818152602001828054613a2a9061548d565b8015613a775780601f10613a4c57610100808354040283529160200191613a77565b820191906000526020600020905b815481529060010190602001808311613a5a57829003601f168201915b50505050509550838054613a8a9061548d565b80601f0160208091040260200160405190810160405280929190818152602001828054613ab69061548d565b8015613b035780601f10613ad857610100808354040283529160200191613b03565b820191906000526020600020905b815481529060010190602001808311613ae657829003601f168201915b50505050509350828054613b169061548d565b80601f0160208091040260200160405190810160405280929190818152602001828054613b429061548d565b8015613b8f5780601f10613b6457610100808354040283529160200191613b8f565b820191906000526020600020905b815481529060010190602001808311613b7257829003601f168201915b50505050509250808054613ba29061548d565b80601f0160208091040260200160405190810160405280929190818152602001828054613bce9061548d565b8015613c1b5780601f10613bf057610100808354040283529160200191613c1b565b820191906000526020600020905b815481529060010190602001808311613bfe57829003601f168201915b505050505090509650965096509650965096505093975093979195509350565b8060006008811115613c5057613c4f615217565b5b6003600083815260200190815260200160002060020160149054906101000a900460ff166008811115613c8657613c85615217565b5b14613c9057600080fd5b613c9933614149565b613ca257600080fd5b336003600084815260200190815260200160002060090160000160006101000a81548173ffffffffffffffffffffffffffffffffffffffff021916908373ffffffffffffffffffffffffffffffffffffffff16021790555060016003600084815260200190815260200160002060020160146101000a81548160ff02191690836008811115613d3457613d33615217565b5b02179055506004600083815260200190815260200160002060000160036000848152602001908152602001600020908060018154018082558091505060019003906000526020600020906015020160009091909190915060008201548160000155600182015481600101556002820160009054906101000a900473ffffffffffffffffffffffffffffffffffffffff168160020160006101000a81548173ffffffffffffffffffffffffffffffffffffffff021916908373ffffffffffffffffffffffffffffffffffffffff1602179055506002820160149054906101000a900460ff168160020160146101000a81548160ff02191690836008811115613e3e57613e3d615217565b5b021790555060038201816003016000820160009054906101000a900473ffffffffffffffffffffffffffffffffffffffff168160000160006101000a81548173ffffffffffffffffffffffffffffffffffffffff021916908373ffffffffffffffffffffffffffffffffffffffff16021790555060018201816001019081613ec691906157fd565b5060028201816002019081613edb91906157fd565b5060038201816003019081613ef091906157fd565b5060048201816004019081613f0591906157fd565b5060058201548160050155505060098201816009016000820160009054906101000a900473ffffffffffffffffffffffffffffffffffffffff168160000160006101000a81548173ffffffffffffffffffffffffffffffffffffffff021916908373ffffffffffffffffffffffffffffffffffffffff16021790555060018201816001019081613f9591906157fd565b5060028201816002019081613faa91906157fd565b505050600c820181600c0160008201816000019081613fc991906157fd565b50600182015481600101556002820154816002015560038201816003019081613ff291906157fd565b50505060108201816010016000820160009054906101000a900473ffffffffffffffffffffffffffffffffffffffff168160000160006101000a81548173ffffffffffffffffffffffffffffffffffffffff021916908373ffffffffffffffffffffffffffffffffffffffff1602179055506001820181600101908161407891906157fd565b506002820181600201908161408d91906157fd565b5050506013820160009054906101000a900473ffffffffffffffffffffffffffffffffffffffff168160130160006101000a81548173ffffffffffffffffffffffffffffffffffffffff021916908373ffffffffffffffffffffffffffffffffffffffff1602179055506014820181601401908161410b91906157fd565b5050507f112c8adc962c1de46b0ae9499cd428dc90feb4c13a4df0c69d7e5e27ab34ae878260405161413d9190615065565b60405180910390a15050565b60008073ffffffffffffffffffffffffffffffffffffffff168273ffffffffffffffffffffffffffffffffffffffff160361418357600080fd5b600560008373ffffffffffffffffffffffffffffffffffffffff1673ffffffffffffffffffffffffffffffffffffffff16815260200190815260200160002060000160019054906101000a900460ff169050919050565b60008073ffffffffffffffffffffffffffffffffffffffff168273ffffffffffffffffffffffffffffffffffffffff160361421457600080fd5b600560008373ffffffffffffffffffffffffffffffffffffffff1673ffffffffffffffffffffffffffffffffffffffff16815260200190815260200160002060000160029054906101000a900460ff169050919050565b60006003600083815260200190815260200160002060020160149054906101000a900460ff169050919050565b806004600060016000546142ac9190615914565b815260200190815260200160002060000160016004600060016000546142d29190615914565b8152602001908152602001600020600001805490506142f19190615914565b81548110614302576143016158e5565b5b9060005260206000209060150201601401908161431f919061566a565b5050565b6003600082815260200190815260200160002060020160009054906101000a900473ffffffffffffffffffffffffffffffffffffffff168073ffffffffffffffffffffffffffffffffffffffff163373ffffffffffffffffffffffffffffffffffffffff161461439257600080fd5b6003600083815260200190815260200160002060090160000160009054906101000a900473ffffffffffffffffffffffffffffffffffffffff168073ffffffffffffffffffffffffffffffffffffffff163373ffffffffffffffffffffffffffffffffffffffff161461440457600080fd5b61440d33614149565b61441657600080fd5b60056003600085815260200190815260200160002060020160146101000a81548160ff021916908360088111156144505761444f615217565b5b02179055506004600084815260200190815260200160002060000160036000858152602001908152602001600020908060018154018082558091505060019003906000526020600020906015020160009091909190915060008201548160000155600182015481600101556002820160009054906101000a900473ffffffffffffffffffffffffffffffffffffffff168160020160006101000a81548173ffffffffffffffffffffffffffffffffffffffff021916908373ffffffffffffffffffffffffffffffffffffffff1602179055506002820160149054906101000a900460ff168160020160146101000a81548160ff0219169083600881111561455a57614559615217565b5b021790555060038201816003016000820160009054906101000a900473ffffffffffffffffffffffffffffffffffffffff168160000160006101000a81548173ffffffffffffffffffffffffffffffffffffffff021916908373ffffffffffffffffffffffffffffffffffffffff160217905550600182018160010190816145e291906157fd565b50600282018160020190816145f791906157fd565b506003820181600301908161460c91906157fd565b506004820181600401908161462191906157fd565b5060058201548160050155505060098201816009016000820160009054906101000a900473ffffffffffffffffffffffffffffffffffffffff168160000160006101000a81548173ffffffffffffffffffffffffffffffffffffffff021916908373ffffffffffffffffffffffffffffffffffffffff160217905550600182018160010190816146b191906157fd565b50600282018160020190816146c691906157fd565b505050600c820181600c01600082018160000190816146e591906157fd565b5060018201548160010155600282015481600201556003820181600301908161470e91906157fd565b50505060108201816010016000820160009054906101000a900473ffffffffffffffffffffffffffffffffffffffff168160000160006101000a81548173ffffffffffffffffffffffffffffffffffffffff021916908373ffffffffffffffffffffffffffffffffffffffff1602179055506001820181600101908161479491906157fd565b50600282018160020190816147a991906157fd565b5050506013820160009054906101000a900473ffffffffffffffffffffffffffffffffffffffff168160130160006101000a81548173ffffffffffffffffffffffffffffffffffffffff021916908373ffffffffffffffffffffffffffffffffffffffff1602179055506014820181601401908161482791906157fd565b5050507ff2452d569e5bc407d222a6bcad7d4bb8bac5fae64ce52fa183bd77e34e0cc147836040516148599190615065565b60405180910390a1505050565b60008054905090565b600073ffffffffffffffffffffffffffffffffffffffff168173ffffffffffffffffffffffffffffffffffffffff16036148a857600080fd5b6148b1816141da565b156148bb57600080fd5b6001600560008373ffffffffffffffffffffffffffffffffffffffff1673ffffffffffffffffffffffffffffffffffffffff16815260200190815260200160002060000160026101000a81548160ff02191690831515021790555050565b60005481565b6000606080606060006060806000878960a001516000019073ffffffffffffffffffffffffffffffffffffffff16908173ffffffffffffffffffffffffffffffffffffffff1681525050858960a0015160200181905250848960a0015160400181905250838960e001516000019073ffffffffffffffffffffffffffffffffffffffff16908173ffffffffffffffffffffffffffffffffffffffff1681525050828960e0015160200181905250818960e00151604001819052508089610100019073ffffffffffffffffffffffffffffffffffffffff16908173ffffffffffffffffffffffffffffffffffffffff168152505086896101200181905250505050505050505050565b838560c0015160000181905250828560c001516020018181525050818560c001516040018181525050808560c00151606001819052505050505050565b6040518061014001604052806000815260200160008152602001600073ffffffffffffffffffffffffffffffffffffffff16815260200160006008811115614aaf57614aae615217565b5b8152602001614abc614b0d565b8152602001614ac9614b59565b8152602001614ad6614b90565b8152602001614ae3614bb8565b8152602001600073ffffffffffffffffffffffffffffffffffffffff168152602001606081525090565b6040518060c00160405280600073ffffffffffffffffffffffffffffffffffffffff16815260200160608152602001606081526020016060815260200160608152602001600081525090565b6040518060600160405280600073ffffffffffffffffffffffffffffffffffffffff16815260200160608152602001606081525090565b6040518060800160405280606081526020016000815260200160008152602001606081525090565b6040518060600160405280600073ffffffffffffffffffffffffffffffffffffffff16815260200160608152602001606081525090565b6000604051905090565b600080fd5b600080fd5b600080fd5b600080fd5b6000601f19601f8301169050919050565b7f4e487b7100000000000000000000000000000000000000000000000000000000600052604160045260246000fd5b614c5682614c0d565b810181811067ffffffffffffffff82111715614c7557614c74614c1e565b5b80604052505050565b6000614c88614bef565b9050614c948282614c4d565b919050565b600067ffffffffffffffff821115614cb457614cb3614c1e565b5b614cbd82614c0d565b9050602081019050919050565b82818337600083830152505050565b6000614cec614ce784614c99565b614c7e565b905082815260208101848484011115614d0857614d07614c08565b5b614d13848285614cca565b509392505050565b600082601f830112614d3057614d2f614c03565b5b8135614d40848260208601614cd9565b91505092915050565b6000819050919050565b614d5c81614d49565b8114614d6757600080fd5b50565b600081359050614d7981614d53565b92915050565b600080600080600080600080610100898b031215614da057614d9f614bf9565b5b600089013567ffffffffffffffff811115614dbe57614dbd614bfe565b5b614dca8b828c01614d1b565b985050602089013567ffffffffffffffff811115614deb57614dea614bfe565b5b614df78b828c01614d1b565b975050604089013567ffffffffffffffff811115614e1857614e17614bfe565b5b614e248b828c01614d1b565b965050606089013567ffffffffffffffff811115614e4557614e44614bfe565b5b614e518b828c01614d1b565b955050608089013567ffffffffffffffff811115614e7257614e71614bfe565b5b614e7e8b828c01614d1b565b94505060a0614e8f8b828c01614d6a565b93505060c0614ea08b828c01614d6a565b92505060e089013567ffffffffffffffff811115614ec157614ec0614bfe565b5b614ecd8b828c01614d1b565b9150509295985092959890939650565b600073ffffffffffffffffffffffffffffffffffffffff82169050919050565b6000614f0882614edd565b9050919050565b614f1881614efd565b8114614f2357600080fd5b50565b600081359050614f3581614f0f565b92915050565b600060208284031215614f5157614f50614bf9565b5b6000614f5f84828501614f26565b91505092915050565b60008115159050919050565b614f7d81614f68565b82525050565b6000602082019050614f986000830184614f74565b92915050565b600060208284031215614fb457614fb3614bf9565b5b6000614fc284828501614d6a565b91505092915050565b600080600060608486031215614fe457614fe3614bf9565b5b6000614ff286828701614d6a565b935050602084013567ffffffffffffffff81111561501357615012614bfe565b5b61501f86828701614d1b565b925050604084013567ffffffffffffffff8111156150405761503f614bfe565b5b61504c86828701614d1b565b9150509250925092565b61505f81614d49565b82525050565b600060208201905061507a6000830184615056565b92915050565b60008060006060848603121561509957615098614bf9565b5b60006150a786828701614d6a565b935050602084013567ffffffffffffffff8111156150c8576150c7614bfe565b5b6150d486828701614d1b565b92505060406150e586828701614d6a565b9150509250925092565b6150f881614efd565b82525050565b600081519050919050565b600082825260208201905092915050565b60005b8381101561513857808201518184015260208101905061511d565b60008484015250505050565b600061514f826150fe565b6151598185615109565b935061516981856020860161511a565b61517281614c0d565b840191505092915050565b600061010082019050615193600083018b615056565b6151a0602083018a615056565b6151ad60408301896150ef565b6151ba60608301886150ef565b81810360808301526151cc8187615144565b905081810360a08301526151e08186615144565b905081810360c08301526151f48185615144565b905081810360e08301526152088184615144565b90509998505050505050505050565b7f4e487b7100000000000000000000000000000000000000000000000000000000600052602160045260246000fd5b6009811061525757615256615217565b5b50565b600081905061526882615246565b919050565b60006152788261525a565b9050919050565b6152888161526d565b82525050565b6000610100820190506152a4600083018b615056565b81810360208301526152b6818a615144565b90506152c56040830189615056565b6152d26060830188615056565b81810360808301526152e48187615144565b90506152f360a083018661527f565b61530060c08301856150ef565b81810360e08301526153128184615144565b90509998505050505050505050565b6000806040838503121561533857615337614bf9565b5b600061534685828601614d6a565b925050602083013567ffffffffffffffff81111561536757615366614bfe565b5b61537385828601614d1b565b9150509250929050565b600060c08201905081810360008301526153978189615144565b90506153a660208301886150ef565b81810360408301526153b88187615144565b905081810360608301526153cc8186615144565b90506153db60808301856150ef565b81810360a08301526153ed8184615144565b9050979650505050505050565b600060208201905061540f600083018461527f565b92915050565b60006020828403121561542b5761542a614bf9565b5b600082013567ffffffffffffffff81111561544957615448614bfe565b5b61545584828501614d1b565b91505092915050565b7f4e487b7100000000000000000000000000000000000000000000000000000000600052602260045260246000fd5b600060028204905060018216806154a557607f821691505b6020821081036154b8576154b761545e565b5b50919050565b60008190508160005260206000209050919050565b60006020601f8301049050919050565b600082821b905092915050565b6000600883026155207fffffffffffffffffffffffffffffffffffffffffffffffffffffffffffffffff826154e3565b61552a86836154e3565b95508019841693508086168417925050509392505050565b6000819050919050565b600061556761556261555d84614d49565b615542565b614d49565b9050919050565b6000819050919050565b6155818361554c565b61559561558d8261556e565b8484546154f0565b825550505050565b600090565b6155aa61559d565b6155b5818484615578565b505050565b5b818110156155d9576155ce6000826155a2565b6001810190506155bb565b5050565b601f82111561561e576155ef816154be565b6155f8846154d3565b81016020851015615607578190505b61561b615613856154d3565b8301826155ba565b50505b505050565b600082821c905092915050565b600061564160001984600802615623565b1980831691505092915050565b600061565a8383615630565b9150826002028217905092915050565b615673826150fe565b67ffffffffffffffff81111561568c5761568b614c1e565b5b615696825461548d565b6156a18282856155dd565b600060209050601f8311600181146156d457600084156156c2578287015190505b6156cc858261564e565b865550615734565b601f1984166156e2866154be565b60005b8281101561570a578489015182556001820191506020850194506020810190506156e5565b868310156157275784890151615723601f891682615630565b8355505b6001600288020188555050505b505050505050565b7f4e487b7100000000000000000000000000000000000000000000000000000000600052601160045260246000fd5b600061577682614d49565b91507fffffffffffffffffffffffffffffffffffffffffffffffffffffffffffffffff82036157a8576157a761573c565b5b600182019050919050565b60006157be82614d49565b91506157c983614d49565b92508282019050808211156157e1576157e061573c565b5b92915050565b6000815490506157f68161548d565b9050919050565b81810361580b5750506158e3565b615814826157e7565b67ffffffffffffffff81111561582d5761582c614c1e565b5b615837825461548d565b6158428282856155dd565b6000601f831160018114615871576000841561585f578287015490505b615869858261564e565b8655506158dc565b601f19841661587f876154be565b965061588a866154be565b60005b828110156158b25784890154825560018201915060018501945060208101905061588d565b868310156158cf57848901546158cb601f891682615630565b8355505b6001600288020188555050505b5050505050505b565b7f4e487b7100000000000000000000000000000000000000000000000000000000600052603260045260246000fd5b600061591f82614d49565b915061592a83614d49565b92508282039050818111156159425761594161573c565b5b9291505056fea2646970667358221220f427e848df20c00ec03f96d708900f54256a35ba46963ca2df468f24408b0e3e64736f6c63430008100033",
  "immutableReferences": {},
  "source": "// SPDX-License-Identifier: MIT\npragma solidity >=0.4.22 <0.9.0;\n\nimport \"./Structure.sol\";\n\ncontract SupplyChain {\n    event ManufacturerAdded(address indexed _account);\n\n    //product code\n    uint256 public uid;\n    uint256 sku;\n\n    address owner;\n\n    mapping(uint256 => Structure.Product) products;\n    mapping(uint256 => Structure.trackProduct) trackProduct;\n    mapping(address => Structure.Roles) roles;\n\n    function hasManufacturerAdmin(address _account) public view returns (bool) {\n        require(_account != address(0));\n        return roles[_account].Manufacturer;\n    }\n\n    function addManufacturerAdmin(address _account) public {\n        require(_account != address(0));\n        require(!hasManufacturerAdmin(_account));\n\n        roles[_account].Manufacturer = true;\n    }\n\n    function hasThirdPartyAdmin(address _account) public view returns (bool) {\n        require(_account != address(0));\n        return roles[_account].ThirdParty;\n    }\n\n    function addThirdPartyAdmin(address _account) public {\n        require(_account != address(0));\n        require(!hasThirdPartyAdmin(_account));\n\n        roles[_account].ThirdParty = true;\n    }\n\n    function hasDeliveryAdmin(address _account) public view returns (bool) {\n        require(_account != address(0));\n        return roles[_account].Delivery;\n    }\n\n    function addDeliveryAdmin(address _account) public {\n        require(_account != address(0));\n        require(!hasDeliveryAdmin(_account));\n\n        roles[_account].Delivery = true;\n    }\n\n    function hasCustomerAdmin(address _account) public view returns (bool) {\n        require(_account != address(0));\n        return roles[_account].Customer;\n    }\n\n    function addCustomerAdmin(address _account) public {\n        require(_account != address(0));\n        require(!hasDeliveryAdmin(_account));\n\n        roles[_account].Customer = true;\n    }\n\n    constructor() public payable {\n        owner = msg.sender;\n        sku = 1;\n        uid = 1;\n    }\n\n    event ProductManufacture(uint256 uid);\n    event PurchasedByThirdParty(uint256 uid);\n    event ShippedByManufacturer(uint256 uid);\n    event ReceivedByThirdParty(uint256 uid);\n    event PurchasedByCustomer(uint256 uid);\n    event ShippedByThirdParty(uint256 uid);\n    event ReceivedByDelivery(uint256 uid);\n    event ShippedByDelivery(uint256 uid);\n    event ReceivedByCustomer(uint256 uid);\n\n    modifier proveAddress(address add) {\n        require(msg.sender == add);\n        _;\n    }\n\n    modifier productManufacture(uint256 _uid) {\n        require(products[_uid].productState == Structure.State.ProductManufacture);\n        _;\n    }\n\n    modifier shippedByManufacturer(uint256 _uid) {\n        require(\n            products[_uid].productState == Structure.State.ShippedByManufacturer\n        );\n        _;\n    }\n\n    modifier receivedByThirdParty(uint256 _uid) {\n        require(\n            products[_uid].productState == Structure.State.ReceivedByThirdParty\n        );\n        _;\n    }\n\n    modifier purchasedByCustomer(uint256 _uid) {\n        require(\n            products[_uid].productState == Structure.State.PurchasedByCustomer\n        );\n        _;\n    }\n\n    modifier shippedByThirdParty(uint256 _uid) {\n        require(\n            products[_uid].productState == Structure.State.ShippedByThirdParty\n        );\n        _;\n    }\n\n    modifier receivedByDelivery(uint256 _uid) {\n        require(\n            products[_uid].productState == Structure.State.ReceivedByDelivery\n        );\n        _;\n    }\n\n    modifier shippedByDelivery(uint256 _uid) {\n        require(\n            products[_uid].productState == Structure.State.ShippedByDelivery\n        );\n        _;\n    }\n\n    modifier receivedByCustomer(uint256 _uid) {\n        require(\n            products[_uid].productState == Structure.State.ReceivedByCustomer\n        );\n        _;\n    }\n\n    function manufactureEmptyInitialize(Structure.Product memory product)\n        internal\n        pure\n    {\n        address thirdParty;\n        string memory transaction;\n        string memory thirdPartyLongitude;\n        string memory thirdPartyLatitude;\n\n        address delivery;\n        string memory deliveryLongitude;\n        string memory deliveryLatitude;\n        address customer;\n\n        product.thirdparty.thirdParty = thirdParty;\n        product.thirdparty.thirdPartyLongitude = thirdPartyLongitude;\n        product.thirdparty.thirdPartyLatitude = thirdPartyLatitude;\n\n        product.delivery.delivery = delivery;\n        product.delivery.deliveryLongitude = deliveryLongitude;\n        product.delivery.deliveryLatitude = deliveryLatitude;\n\n        product.customer = customer;\n        product.transaction = transaction;\n    }\n\n    function manufactureProductInitialize(\n        Structure.Product memory product,\n        string memory productName,\n        uint256 productCode,\n        uint256 productPrice,\n        string memory productCategory\n    ) internal pure {\n        product.productdet.productName = productName;\n        product.productdet.productCode = productCode;\n        product.productdet.productPrice = productPrice;\n        product.productdet.productCategory = productCategory;\n    }\n\n    ///@dev STEP 1 : Manufactured a product.\n    function manufactureProduct(\n        string memory manufacturerName,\n        string memory manufacturerDetails,\n        string memory manufacturerLongitude,\n        string memory manufacturerLatitude,\n        string memory productName,\n        uint256 productCode,\n        uint256 productPrice,\n        string memory productCategory\n    ) public {\n        require(hasManufacturerAdmin(msg.sender));\n        uint256 _uid = uid;\n        Structure.Product memory product;\n        product.sku = sku;\n        product.uid = _uid;\n        product.manufacturer.manufacturerName = manufacturerName;\n        product.manufacturer.manufacturerDetails = manufacturerDetails;\n        product.manufacturer.manufacturerLongitude = manufacturerLongitude;\n        product.manufacturer.manufacturerLatitude = manufacturerLatitude;\n        product.manufacturer.manufacturedDate = block.timestamp;\n\n        product.owner = msg.sender;\n        product.manufacturer.manufacturer = msg.sender;\n\n        manufactureEmptyInitialize(product);\n\n        product.productState = Structure.State.ProductManufacture;\n\n        manufactureProductInitialize(\n            product,\n            productName,\n            productCode,\n            productPrice,\n            productCategory\n        );\n\n        products[_uid] = product;\n\n        trackProduct[_uid].history.push(product);\n\n        sku++;\n        uid = uid + 1;\n\n        emit ProductManufacture(_uid);\n    }\n\n    ///@dev STEP 2 : Purchase of manufactured product by Third Party.\n    function purchaseByThirdParty(uint256 _uid) public productManufacture(_uid) {\n        require(hasThirdPartyAdmin(msg.sender));\n        products[_uid].thirdparty.thirdParty = msg.sender;\n        products[_uid].productState = Structure.State.PurchasedByThirdParty;\n        trackProduct[_uid].history.push(products[_uid]);\n\n        emit PurchasedByThirdParty(_uid);\n    }\n\n    ///@dev STEP 3 : Shipping of purchased product to Third Party.\n    function shipToThirdParty(uint256 _uid)\n        public\n        proveAddress(products[_uid].manufacturer.manufacturer)\n    {\n        require(hasManufacturerAdmin(msg.sender));\n        products[_uid].productState = Structure.State.ShippedByManufacturer;\n        trackProduct[_uid].history.push(products[_uid]);\n\n        emit ShippedByManufacturer(_uid);\n    }\n\n    ///@dev STEP 4 : Received the purchased product shipped by Manufacturer.\n    function receiveByThirdParty(\n        uint256 _uid,\n        string memory thirdPartyLongitude,\n        string memory thirdPartyLatitude\n    )\n        public\n        shippedByManufacturer(_uid)\n        proveAddress(products[_uid].thirdparty.thirdParty)\n    {\n        require(hasThirdPartyAdmin(msg.sender));\n        products[_uid].owner = msg.sender;\n        products[_uid].thirdparty.thirdPartyLongitude = thirdPartyLongitude;\n        products[_uid].thirdparty.thirdPartyLatitude = thirdPartyLatitude;\n        products[_uid].productState = Structure.State.ReceivedByThirdParty;\n        trackProduct[_uid].history.push(products[_uid]);\n\n        emit ReceivedByThirdParty(_uid);\n    }\n\n    ///@dev STEP 5 : Purchase of a product at third party by Customer.\n    function purchaseByCustomer(uint256 _uid)\n        public\n        receivedByThirdParty(_uid)\n    {\n        require(hasCustomerAdmin(msg.sender));\n        products[_uid].customer = msg.sender;\n        products[_uid].productState = Structure.State.PurchasedByCustomer;\n        trackProduct[_uid].history.push(products[_uid]);\n\n        emit PurchasedByCustomer(_uid);\n    }\n\n    ///@dev STEP 7 : Shipping of product by third party purchased by customer.\n    function shipByThirdParty(uint256 _uid)\n        public\n        proveAddress(products[_uid].owner)\n        proveAddress(products[_uid].thirdparty.thirdParty)\n    {\n        require(hasThirdPartyAdmin(msg.sender));\n        products[_uid].productState = Structure.State.ShippedByThirdParty;\n        trackProduct[_uid].history.push(products[_uid]);\n\n        emit ShippedByThirdParty(_uid);\n    }\n\n    ///@dev STEP 8 : Receiveing of product by delivery purchased by customer.\n    function receiveByDelivery(\n        uint256 _uid,\n        string memory deliveryLongitude,\n        string memory deliveryLatitude\n    ) public shippedByThirdParty(_uid) {\n        require(hasDeliveryAdmin(msg.sender));\n        products[_uid].owner = msg.sender;\n        products[_uid].delivery.delivery = msg.sender;\n        products[_uid].delivery.deliveryLongitude = deliveryLongitude;\n        products[_uid].delivery.deliveryLatitude = deliveryHubLatitude;\n        products[_uid].productState = Structure.State.ReceivedByDeliveryHub;\n        productHistory[_uid].history.push(products[_uid]);\n\n        emit ReceivedByDeliveryHub(_uid);\n    }\n\n    ///@dev STEP 9 : Shipping of product by delivery hub purchased by customer.\n    function shipByDeliveryHub(uint256 _uid)\n        public\n        receivedByDeliveryHub(_uid)\n        verifyAddress(products[_uid].owner)\n        verifyAddress(products[_uid].deliveryhub.deliveryHub)\n    {\n        require(hasDeliveryHubRole(msg.sender));\n        products[_uid].productState = Structure.State.ShippedByDeliveryHub;\n        productHistory[_uid].history.push(products[_uid]);\n\n        emit ShippedByDeliveryHub(_uid);\n    }\n\n    ///@dev STEP 10 : Shipping of product by delivery hub purchased by customer.\n    function receiveByCustomer(uint256 _uid)\n        public\n        shippedByDeliveryHub(_uid)\n        verifyAddress(products[_uid].customer)\n    {\n        require(hasCustomerRole(msg.sender));\n        products[_uid].owner = msg.sender;\n        products[_uid].productState = Structure.State.ReceivedByCustomer;\n        productHistory[_uid].history.push(products[_uid]);\n\n        emit ReceivedByCustomer(_uid);\n    }\n\n    ///@dev Fetch product\n    function fetchProductPart1(\n        uint256 _uid,\n        string memory _type,\n        uint256 i\n    )\n        public\n        view\n        returns (\n            uint256,\n            uint256,\n            address,\n            address,\n            string memory,\n            string memory,\n            string memory,\n            string memory\n        )\n    {\n        require(products[_uid].uid != 0);\n        Structure.Product storage product = products[_uid];\n        if (keccak256(bytes(_type)) == keccak256(bytes(\"product\"))) {\n            product = products[_uid];\n        }\n        if (keccak256(bytes(_type)) == keccak256(bytes(\"history\"))) {\n            product = productHistory[_uid].history[i];\n        }\n        return (\n            product.uid,\n            product.sku,\n            product.owner,\n            product.manufacturer.manufacturer,\n            product.manufacturer.manufacturerName,\n            product.manufacturer.manufacturerDetails,\n            product.manufacturer.manufacturerLongitude,\n            product.manufacturer.manufacturerLatitude\n        );\n    }\n\n    ///@dev Fetch product\n    function fetchProductPart2(\n        uint256 _uid,\n        string memory _type,\n        uint256 i\n    )\n        public\n        view\n        returns (\n            uint256,\n            string memory,\n            uint256,\n            uint256,\n            string memory,\n            Structure.State,\n            address,\n            string memory\n        )\n    {\n        require(products[_uid].uid != 0);\n        Structure.Product storage product = products[_uid];\n        if (keccak256(bytes(_type)) == keccak256(bytes(\"product\"))) {\n            product = products[_uid];\n        }\n        if (keccak256(bytes(_type)) == keccak256(bytes(\"history\"))) {\n            product = productHistory[_uid].history[i];\n        }\n        return (\n            product.manufacturer.manufacturedDate,\n            product.productdet.productName,\n            product.productdet.productCode,\n            product.productdet.productPrice,\n            product.productdet.productCategory,\n            product.productState,\n            product.thirdparty.thirdParty,\n            product.thirdparty.thirdPartyLongitude\n        );\n    }\n\n    function fetchProductPart3(\n        uint256 _uid,\n        string memory _type,\n        uint256 i\n    )\n        public\n        view\n        returns (\n            string memory,\n            address,\n            string memory,\n            string memory,\n            address,\n            string memory\n        )\n    {\n        require(products[_uid].uid != 0);\n        Structure.Product storage product = products[_uid];\n        if (keccak256(bytes(_type)) == keccak256(bytes(\"product\"))) {\n            product = products[_uid];\n        }\n        if (keccak256(bytes(_type)) == keccak256(bytes(\"history\"))) {\n            product = productHistory[_uid].history[i];\n        }\n        return (\n            product.thirdparty.thirdPartyLatitude,\n            product.deliveryhub.deliveryHub,\n            product.deliveryhub.deliveryHubLongitude,\n            product.deliveryhub.deliveryHubLatitude,\n            product.customer,\n            product.transaction\n        );\n    }\n\n    function fetchProductCount() public view returns (uint256) {\n        return uid;\n    }\n\n    function fetchProductHistoryLength(uint256 _uid)\n        public\n        view\n        returns (uint256)\n    {\n        return productHistory[_uid].history.length;\n    }\n\n    function fetchProductState(uint256 _uid)\n        public\n        view\n        returns (Structure.State)\n    {\n        return products[_uid].productState;\n    }\n\n    function setTransactionHashOnManufacture(string memory tran) public {\n        productHistory[uid - 1].history[\n            productHistory[uid - 1].history.length - 1\n        ]\n            .transaction = tran;\n    }\n\n    function setTransactionHash(uint256 _uid, string memory tran) public {\n        Structure.Product storage p =\n            productHistory[_uid].history[\n                productHistory[_uid].history.length - 1\n            ];\n        p.transaction = tran;\n    }\n}\n",
  "sourcePath": "/Users/sumyat/Documents/GitHub/eth-supplychain-dapp/contracts/SupplyChain.sol",
  "compiler": {
    "name": "solc",
    "version": "0.8.16+commit.07a7930e.Emscripten.clang"
  },
  "schemaVersion": "3.4.9",
  "updatedAt": "2022-08-30T15:19:37.825Z",
  "devdoc": {
    "kind": "dev",
    "methods": {
      "fetchItemPart1(uint256,string,uint256)": {
        "details": "Fetch product"
      },
      "fetchItemPart2(uint256,string,uint256)": {
        "details": "Fetch product"
      },
      "manufactureProduct(string,string,string,string,string,uint256,uint256,string)": {
        "details": "STEP 1 : Manufactured a product."
      },
      "purchaseByCustomer(uint256)": {
        "details": "STEP 5 : Purchase of a product at third party by Customer."
      },
      "purchaseByThirdParty(uint256)": {
        "details": "STEP 2 : Purchase of manufactured product by Third Party."
      },
      "receiveByCustomer(uint256)": {
        "details": "STEP 10 : Shipping of product by delivery purchased by customer."
      },
      "receiveByDelivery(uint256,string,string)": {
        "details": "STEP 8 : Receiveing of product by delivery purchased by customer."
      },
      "receiveByThirdParty(uint256,string,string)": {
        "details": "STEP 4 : Received the purchased product shipped by Manufacturer."
      },
      "shipByDelivery(uint256)": {
        "details": "STEP 9 : Shipping of product by delivery purchased by customer."
      },
      "shipByThirdParty(uint256)": {
        "details": "STEP 7 : Shipping of product by third party purchased by customer."
      },
      "shipToThirdParty(uint256)": {
        "details": "STEP 3 : Shipping of purchased product to Third Party."
      }
    },
    "version": 1
  },
  "userdoc": {
    "kind": "user",
    "methods": {},
    "version": 1
  }
}